:100000000C9466000C948E000C948E000C948E0060
:100010000C948E000C948E000C948E000C948E0028
:100020000C948E000C948E000C948E000C948E0018
:100030000C948E000C948E000C948E000C948E0008
:100040000C9439050C948E000C9407050C94E10473
:100050000C948E000C948E000C948E000C948E00E8
:100060000C9483050C948E004009430947094B0901
:100070004F095209570959090000000024002700C0
:100080002A0000000008000201000003040700002D
:10009000000000000000010204081020408001025E
:1000A00004081020010204081020000000002500B0
:1000B00028002B00040404040404040402020202C5
:1000C0000202030303030303B106890911241FBEBF
:1000D000CFEFD8E0DEBFCDBF25E0A8E3B1E001C09F
:1000E0001D92A231B207E1F711E0A0E0B1E0ECEB24
:1000F000F5E102C005900D92A833B107D9F710E0E1
:10010000C5E6D0E004C02197FE010E949909C436DB
:10011000D107C9F70E9470070C94D10A0C94000013
:10012000CF92DF92EF92FF920F931F93CF93DF93C3
:100130006C017A018B01C0E0D0E0CE15DF0589F0BB
:10014000D8016D918D01D601ED91FC910190F08166
:10015000E02DC6010995892B11F47E0102C021967C
:10016000ECCFC701DF91CF911F910F91FF90EF90DE
:10017000DF90CF900895E0915D01F0915E0130979E
:1001800029F01092D3011092D20109940895CF93CF
:10019000DF93AC01E091DA01F091DB013097F1F0EF
:1001A0009091D5018091D4019817C0F090E0292F4B
:1001B00030E02617370754F4D901A35CBE4FEA019B
:1001C000C20FD31F88818C939F5FF1CF1092D5010E
:1001D0006093D401CB01DF91CF910994DF91CF914E
:1001E0000895FC01918D828D981761F0828DDF0159
:1001F000A80FB11D5D968C91928D9F5F9F73928F1A
:1002000090E008958FEF9FEF0895FC01918D828D0E
:10021000981731F0828DE80FF11D858D90E00895DB
:100220008FEF9FEF0895FC01918D228D892F90E033
:10023000805C9F4F821B91098F73992708958DEDE4
:1002400091E00E94130121E0892B09F420E0822F24
:100250000895FC01848DDF01A80FB11DA35ABF4F83
:100260002C91848D90E001968F739927848FA689B5
:10027000B7892C93A089B1898C9180648C93938DDC
:10028000848D981306C00288F389E02D80818F7DCC
:1002900080830895EF92FF920F931F93CF93DF9384
:1002A000EC0181E0888F9B8D8C8D981305C0E889C7
:1002B000F989808185FD24C0F62E0B8D10E00F5F3B
:1002C0001F4F0F731127E02E8C8DE8120CC00FB654
:1002D00007FCFACFE889F989808185FFF5CFCE0147
:1002E0000E942901F1CF8B8DFE01E80FF11DE35A29
:1002F000FF4FF0820B8FEA89FB898081806207C003
:10030000EE89FF896083E889F98980818064808330
:1003100081E090E0DF91CF911F910F91FF90EF90DE
:100320000895CF93DF93EC01888D8823C9F0EA8983
:10033000FB89808185FD05C0A889B9898C9186FDDE
:100340000FC00FB607FCF5CF808185FFF2CFA889DB
:10035000B9898C9185FFEDCFCE010E942901E7CFAD
:10036000DF91CF91089580E090E0892B29F00E94E1
:100370001F0181110C940000089590E0FC01EE57DC
:10038000FF4F3491FC01EA56FF4F2491FC01EC54DD
:10039000FF4FE491EE2309F43BC0332339F13330AE
:1003A00091F038F43130A9F0323001F584B58F7D09
:1003B00012C0373091F03830A1F03430B9F4809168
:1003C00080008F7D03C0809180008F7780938000B4
:1003D0000DC084B58F7784BD09C08091B0008F7740
:1003E00003C08091B0008F7D8093B000F0E0EE0FED
:1003F000FF1FE655FF4FA591B4918FB7F894EC918C
:10040000611103C020952E2301C02E2B2C938FBF8A
:100410000895CF93DF9390E0FC01EA56FF4F2491BB
:10042000FC01EC54FF4F8491882361F190E0880F28
:10043000991FFC01E858FF4FC591D491FC01E65586
:10044000FF4FA591B491611109C09FB7F8948881BD
:10045000209582238883EC912E230BC0623061F4B7
:100460009FB7F8943881822F809583238883EC91FD
:100470002E2B2C939FBF06C08FB7F894E8812E2BAC
:1004800028838FBFDF91CF9108953FB7F894809173
:10049000CB019091CC01A091CD01B091CE0126B5B8
:1004A000A89B05C02F3F19F00196A11DB11D3FBFAC
:1004B000BA2FA92F982F8827820F911DA11DB11D3A
:1004C000BC01CD0142E0660F771F881F991F4A9536
:1004D000D1F708952FB7F8946091C7017091C801C2
:1004E0008091C9019091CA012FBF0895CF92DF92E8
:1004F000EF92FF920F931F93CF93DF93CDB7DEB7A9
:1005000029970FB6F894DEBF0FBECDBF8C010E94B5
:100510004502D8011E96CD90DD90ED90FC9051974C
:10052000DC01CB018C199D09AE09BF098C329140C9
:10053000A105B10560F3F894D80114968D919C91B2
:1005400015979A8389831896ED91FC9119977F01ED
:10055000BFEFEB1AFB0A80818B83F8019081028840
:10056000F389E02DD80154968C91992309F430C079
:100570009081982B9C839081809589238D838D8198
:100580008E8388E08F835C816D814B813F812E81DA
:1005900089819A81D701508347FD252F3A95208381
:1005A000262F39F0441F00C000006083000000C007
:1005B000F2CF38E04D9160830000019761F7D801D8
:1005C0005396FC93EE9352974B833F832E833AC00E
:1005D0009081982B9C839081809589238D838D8138
:1005E000888788E089875C816D814B813985288582
:1005F00089819A81D701508347FD252F00C000C013
:10060000208300C000C000C000C000C060830000A4
:10061000262F3A9541F0441F000000C000C000C0E2
:1006200000C000C0E8CF38E04D9100C0608300C03A
:10063000019709F7D8015396FC93EE9352974B8399
:10064000398728879A83898378940E944502F80124
:1006500066877787808B918B29960FB6F894DEBFDB
:100660000FBECDBFDF91CF911F910F91FF90EF9003
:10067000DF90CF90089585ED8093BC008091BC0001
:1006800084FDFCCF1092D101089540917F01262F67
:1006900030E0240F311D21323105DCF42091D101ED
:1006A0002430C9F4FC0180E090E0861758F43091C2
:1006B0007F012191DC01A15ABE4FA30FB11D2C93E4
:1006C0000196F3CF80917F01680F60937F0180E0F6
:1006D000089581E0089582E008950895E091D5019C
:1006E0008091D401E81730F4F0E0E35CFE4F8081A4
:1006F00090E008958FEF9FEF08959091D50180913C
:10070000D401981750F4E92FF0E0E35CFE4F20810C
:1007100030E09F5F9093D50102C02FEF3FEFC901FA
:1007200008958091D40190E02091D501821B910918
:100730000895CF93DF9300D0CDB7DEB7CB01642F00
:1007400049835A830E9445034981842F5A81952FFA
:100750000F900F90DF91CF910895CF93DF931F9269
:10076000CDB7DEB7698361E0CE0101960E944503F3
:1007700081E090E00F90DF91CF9108958F929F924A
:10078000AF92BF92CF92DF92EF92FF920F931F939F
:10079000CF93DF93DC01E12CF12CC12CD12C812CE7
:1007A000912C8D919C9111978816990608F058C04C
:1007B00050968D919C9151978816990608F046C0E5
:1007C00055968C915597882389F0689FF0011124E4
:1007D0007F2F489FF00111245F2F289FF0011124E3
:1007E0003F2F089FC0011124192F04C0102F322F52
:1007F000542F762F5B968C915B9758969C915897C7
:100800005696ED91FC915797891303C0EC0DFD1D91
:1008100007C0EE0DFF1D5F01A80EB11CE501188396
:1008200058968C9158975F01A80EB11CE50178830A
:1008300059968C9159975F01A80EB11CE501588318
:100840005A968C915A97E80FF11D3083DFEF8D1A7D
:100850009D0A83E0C80ED11CC4E0EC0EF11CA1CFB0
:10086000DF91CF911F910F91FF90EF90DF90CF908C
:10087000BF90AF909F908F900895CF92DF92EF92AC
:10088000FF920F93FC013381313029F008F446C008
:10089000343030F043C0158683A181112FC03EC093
:1008A00085819681A781B085C184D284E384F48454
:1008B000C816D906EA06FB0670F4748151E0572782
:1008C00054833230F9F48C509E4FAF4FBF4F818725
:1008D0009287A387B4878585833130F0148215868B
:1008E00088E0828381E08383948183A19111D5CFB5
:1008F0008823A1F000E020E040E060E0CF010E940A
:10090000BE030CC08C599F4FAF4FBF4F818792875A
:10091000A387B48785858F5F8587DDCF0F91FF9093
:10092000EF90DF90CF900895CF93C4E29091D401DF
:100930008091D501981769F182EC92E00E947D03C5
:1009400080933C01811103C010923B011BC08F3F7B
:1009500079F480913A01E0913801E150CE9FF001A5
:100960001124E253FD4F90913901928383830AC091
:10097000E0913B0191E09E0F90933B01F0E0E85C39
:10098000FE4F808380913B01833080F210923B01C7
:10099000CDCFCF910895CF93DF93EC0188859985D2
:1009A000009711F00E94340A8E8187FD05C060E037
:1009B000DF91CF910C940902DF91CF9108950E94AD
:1009C000CC0A1F920F920FB60F9211242F933F93D0
:1009D0004F935F936F937F938F939F93AF93BF9347
:1009E000EF93FF938DED91E00E942901FF91EF912C
:1009F000BF91AF919F918F917F916F915F914F9137
:100A00003F912F910F900FBE0F901F9018951F923E
:100A10000F920FB60F9211242F938F939F93EF9302
:100A2000FF93E091ED01F091EE018081E091F301FF
:100A3000F091F40182FD12C090818091F6018F5FE8
:100A40008F732091F701821751F0E091F601F0E0E9
:100A5000E352FE4F958F8093F60101C08081FF9194
:100A6000EF919F918F912F910F900FBE0F901F903C
:100A700018951F920F920FB60F9211242F933F9348
:100A80008F939F93AF93BF938091C7019091C801BB
:100A9000A091C901B091CA013091C60123E0230F92
:100AA0002D3720F40196A11DB11D05C026E8230FA6
:100AB0000296A11DB11D2093C6018093C70190939A
:100AC000C801A093C901B093CA018091CB01909154
:100AD000CC01A091CD01B091CE010196A11DB11D17
:100AE0008093CB019093CC01A093CD01B093CE0124
:100AF000BF91AF919F918F913F912F910F900FBE1A
:100B00000F901F9018951F920F920FB60F921124FD
:100B10002F933F934F935F936F937F938F939F9305
:100B2000AF93BF93EF93FF938091B900887F803696
:100B300009F49CC068F5883209F45BC090F48031F8
:100B400009F454C038F4882309F4F6C0883009F455
:100B50004DC0F6C0883109F44CC0803209F45DC044
:100B6000EFC0803409F468C048F4803309F455C0FC
:100B7000883309F0E5C08093A201D8C0803509F41C
:100B80004FC0883509F45DC0883409F0D9C0D6C09B
:100B9000883909F4C7C0A8F4883709F467C038F465
:100BA000883609F463C0803709F460C0C9C088384A
:100BB00009F4B8C0803909F45FC0803809F0C0C0BA
:100BC0005BC0803B09F486C038F4803A09F466C003
:100BD000883A09F47FC0B4C0803C09F4A7C0883CBF
:100BE00009F4A4C0883B09F48AC0AAC08091C50159
:100BF00010C09091C4018091C301981770F5E091E5
:100C0000C40181E08E0F8093C401F0E0ED55FE4FEA
:100C100080818093BB0085EC86C08093A2018EC04A
:100C2000E091C40181E08E0F8093C4018091BB00EC
:100C3000F0E0ED55FE4F80839091C4018091C30197
:100C40006EC0E091C40181E08E0F8093C401809159
:100C5000BB00F0E0ED55FE4F80838091D001811103
:100C60006DC081E08093CF0184EA61C083E080930E
:100C7000D1011092A101CFCF8091A101803208F063
:100C800051C0E091A10181E08E0F8093A10180917C
:100C9000BB00F0E0EF57FE4F8083BDCF85EC809323
:100CA000BC001092D1018091A101803230F4E0911A
:100CB000A101F0E0EF57FE4F10826091A10170E0BA
:100CC000E091D601F091D70181E891E00995109269
:100CD000A10136C084E08093D1011092800110926E
:100CE0007F01E091D801F091D901099580917F01B0
:100CF000811105C081E080937F0110925F01E09136
:100D0000800181E08E0F80938001F0E0E15AFE4F78
:100D100080818093BB009091800180917F01981722
:100D200008F479CF85E88093BC000AC085EC8093F5
:100D3000BC001092D10104C01092A2010E943B039A
:100D4000FF91EF91BF91AF919F918F917F916F91A3
:100D50005F914F913F912F910F900FBE0F901F9079
:100D60001895CF93DF931092E0011092DF0188EE87
:100D700093E0A0E0B0E08093E1019093E201A093C2
:100D8000E301B093E4012AE031E03093DE012093E7
:100D9000DD0125EC30E03093EA012093E90124ECF9
:100DA00030E03093EC012093EB0120EC30E0309305
:100DB000EE012093ED0121EC30E03093F00120931F
:100DC000EF0122EC30E03093F2012093F10126ECA8
:100DD00030E03093F4012093F3011092F601109269
:100DE000F7011092F8011092F9011092800210920E
:100DF0008102109282021092830210928402109259
:100E00008502109286021092870210928802109238
:100E1000890210928A0210928B0210928C02109218
:100E20008D0210928E0210928F021092C5021092C3
:100E3000C4028093C6029093C702A093C802B093E5
:100E4000C9028AE191E09093C3028093C202E1EF6C
:100E5000F2E0AEECB2E038E081E02FEF92E0EF019B
:100E6000A1973883219688832196188215961D9222
:100E70001D921D921C92189719961D921D921D92FB
:100E80001C921C9729961882219688832196188295
:100E900051961C921E92509753961C921E925297F6
:100EA000259628832196188257961C921E92569753
:100EB0002396888321961882219698832196888389
:100EC0005C961D921D921D921C925F9710829496C3
:100ED000B49645E0AE30B40711F6DF91CF91089596
:100EE000CF93DF93CDB7DEB765970FB6F894DEBF2B
:100EF0000FBECDBF789484B5826084BD84B5816017
:100F000084BD85B5826085BD85B5816085BD8091D4
:100F10006E00816080936E0010928100809181004C
:100F20008260809381008091810081608093810044
:100F3000809180008160809380008091B100846006
:100F40008093B1008091B00081608093B000809167
:100F50007A00846080937A0080917A008260809326
:100F60007A0080917A00816080937A0080917A0083
:100F7000806880937A001092C1001092BE02109295
:100F8000BF021092C0021092C10210927C02109215
:100F90007D0210927E0210927F020E946A026B0113
:100FA0007C014B015C0128EB820E2BE0921EA11C00
:100FB000B11C0E946A026C157D058E059F0528F004
:100FC00086169706A806B906A0F78DED91E09093D6
:100FD000BD028093BC02E091ED01F091EE0182E050
:100FE0008083E091E901F091EA011082E091EB0148
:100FF000F091EC0180E180831092F501E091F10124
:10100000F091F20186E08083E091EF01F091F00130
:10101000808180618083E091EF01F091F001808117
:1010200088608083E091EF01F091F0018081806819
:101030008083E091EF01F091F00180818F7D8083CA
:101040000E946A0260937C0270937D0280937E020C
:1010500090937F028091BC029091BD02DC01ED91E2
:10106000FC910280F381E02D41E150E066E271E005
:1010700009950E946A026B017C014B015C01BAE098
:101080008B0E911CA11CB11C0E946A026C157D057F
:101090008E059F0528F086169706A806B906A0F7C4
:1010A00011E01093900284E88093BA008BEB90E0FB
:1010B0009093D9018093D80187EC90E09093D70169
:1010C0008093D6011092D5011092D4011092D301D1
:1010D0001092D2011092D1011093D0011092CF0141
:1010E00061E082E10E94BD0161E083E10E94BD01F7
:1010F0008091B9008E7F8093B9008091B9008D7F77
:101100008093B90088E48093B80085E48093BC00A4
:1011100084E994E09093DB018093DA01E091DC01B3
:10112000E03108F08AC081E08E0F8093DC01EE2E62
:10113000F12C24E2E29FF0011124E253FD4F13A3AE
:1011400021E1C22ED12CD182C0821A8218861F863C
:10115000188A198A1A8A83E08E871B871C8682E088
:101160008D87198384E490E09E838D830E949F097C
:101170009A878987009741F024E4DC011D922A9523
:10118000E9F7DC82CB8204C01E821D821C821B8296
:1011900086E08F838A81882341F061E086E00E94A7
:1011A000090260E086E00E94BD01EAEBF0E0E49114
:1011B000F0E0EE0FFF1FE655FF4F859194919C8B59
:1011C0008B8BECE9F0E0E491ED8B84E28E9D800165
:1011D0008F9D100D1124D801A452BD4F85E1FE0151
:1011E000319601900D928A95E1F7CE0101960E9409
:1011F000CB04F801E452FD4F6F0102531D4FD8019B
:1012000054968C9187FD08C061E00E94090260E05D
:10121000F80184890E94BD0184E28E9DF0018F9DBA
:10122000F00D1124E253FD4F81E08787868997896D
:10123000892B19F0C6010E9476028EECE82E82E01E
:10124000F82EC12CD12C860102531D4FD801939644
:101250008C918823F1F10E946A02F70165837683FD
:1012600087839087D8011296EC918E2F90E0FC0135
:101270003197E830F10520F5EC5CFF4F0C949909AB
:1012800000E020E011C000E020E040E20EC000E0FD
:1012900020E040E80AC000E020E04FEF0DC000E091
:1012A0002FEF09C000E02FEF40E06FEF06C00FEF17
:1012B00001C000E020E040E060E0C7010E943D0482
:1012C000C7010E96F70126893789232B11F00E945A
:1012D0007602F4E2CF0ED11C24E2E20EF11C80E48F
:1012E000C81682E0D80609F0AECF0E9445026B0115
:1012F0007C010E944502DC01CB018C199D09AE09DD
:10130000BF09883E9340A105B10598F30E94B3013F
:1013100094CFCF93DF93CEE0D5E0A497CE010E9685
:101320000E94CB0482E0CE3CD807B9F7DF91CF9181
:101330000895EE0FFF1F0590F491E02D0994CF93CF
:10134000DF938230910510F482E090E0E091100587
:10135000F091110520E030E0C0E0D0E0309711F1CD
:101360004081518148175907C0F04817590761F467
:1013700082819381209719F09B838A832BC090935D
:1013800011058093100526C02115310519F042176B
:10139000530718F49A01BE01DF01EF010280F381C7
:1013A000E02DDCCF2115310509F1281B390B243044
:1013B000310590F412968D919C91139761157105EA
:1013C00021F0FB019383828304C0909311058093E5
:1013D0001005FD01329644C0FD01E20FF31F819319
:1013E0009193225031092D933C933AC020910E05E0
:1013F00030910F05232B41F420910201309103011C
:1014000030930F0520930E052091000130910101CA
:101410002115310541F42DB73EB74091040150919B
:101420000501241B350BE0910E05F0910F05E21725
:10143000F307A0F42E1B3F0B2817390778F0AC01F7
:101440004E5F5F4F2417350748F04E0F5F1F5093D4
:101450000F0540930E058193919302C0E0E0F0E008
:10146000CF01DF91CF9108950F931F93CF93DF9317
:10147000009709F48CC0FC0132971382128200910C
:101480001005109111050115110581F4208131819C
:10149000820F931F20910E0530910F0528173907F1
:1014A00079F5F0930F05E0930E0571C0D80140E087
:1014B00050E0AE17BF0750F412962D913C91139750
:1014C000AD012115310509F1D901F3CF9D01DA01F3
:1014D0003383228360817181860F971F8217930760
:1014E00069F4EC0128813981260F371F2E5F3F4FA9
:1014F000318320838A819B8193838283452B29F4C6
:10150000F0931105E093100542C01396FC93EE93FF
:101510001297ED01499159919E01240F351FE21751
:10152000F30771F480819181840F951F02961196C3
:101530009C938E938281938113969C938E931297A2
:10154000E0E0F0E0D80112968D919C9113970097FE
:1015500019F0F8018C01F6CF8D919C9198012E5FC6
:101560003F4F820F931F20910E0530910F052817D2
:10157000390769F4309729F410921105109210057B
:1015800002C01382128210930F0500930E05DF91A3
:10159000CF911F910F91089581E090E0F8940C9401
:1015A000D10A10E0C5E6D0E004C0FE010E9499090E
:0C15B0002196C636D107C9F7F894FFCF8A
:1015BC00000012058000000000004A019000130199
:1015CC00F1000501910100000000AD0399039103A6
:1015DC007D036E036D03564D4450565F317C315F75
:0815EC00564D4450560D0A0053
:00000001FF
