:100000000C9466000C948E000C948E000C948E0060
:100010000C948E000C948E000C948E000C948E0028
:100020000C948E000C948E000C948E000C948E0018
:100030000C948E000C948E000C948E000C948E0008
:100040000C9434030C948E000C9402030C94DC0288
:100050000C948E000C948E000C948E000C948E00E8
:100060000C9417050C948E00B70ABA0ABE0AC20A8D
:10007000C60AC90ACE0AD00A0000000024002700E0
:100080002A0000000008000201000003040700002D
:10009000000000000000010204081020408001025E
:1000A00004081020010204081020000000002500B0
:1000B00028002B00040404040404040402020202C5
:1000C0000202030303030303100B000B11241FBEE2
:1000D000CFEFD8E0DEBFCDBF25E0A8E3B1E001C09F
:1000E0001D92A336B207E1F711E0A0E0B1E0E8E924
:1000F000FAE102C005900D92A833B107D9F710E0DC
:10010000C5E6D0E004C02197FE010E94070CC4366A
:10011000D107C9F70E94F4080C943F0D0C9400001D
:10012000FC01918D828D981761F0828DDF01A80FFF
:10013000B11D5D968C91928D9F5F9F73928F90E021
:1001400008958FEF9FEF0895FC01918D828D981790
:1001500031F0828DE80FF11D858D90E008958FEFCD
:100160009FEF0895FC01918D228D892F90E0805C96
:100170009F4F821B91098F73992708958EED91E00F
:100180000E94B20021E0892B09F420E0822F08951B
:10019000FC01848DDF01A80FB11DA35ABF4F2C9124
:1001A000848D90E001968F739927848FA689B789F3
:1001B0002C93A089B1898C9180648C93938D848DCC
:1001C000981306C00288F389E02D80818F7D80839B
:1001D0000895EF92FF920F931F93CF93DF93EC015B
:1001E00081E0888F9B8D8C8D981305C0E889F989F3
:1001F000808185FD24C0F62E0B8D10E00F5F1F4F10
:100200000F731127E02E8C8DE8120CC00FB607FC7F
:10021000FACFE889F989808185FFF5CFCE010E9468
:10022000C800F1CF8B8DFE01E80FF11DE35AFF4F9F
:10023000F0820B8FEA89FB898081806207C0EE899A
:10024000FF896083E889F98980818064808381E007
:1002500090E0DF91CF911F910F91FF90EF90089563
:10026000CF93DF93EC01888D8823C9F0EA89FB895D
:10027000808185FD05C0A889B9898C9186FD0FC054
:100280000FB607FCF5CF808185FFF2CFA889B98929
:100290008C9185FFEDCFCE010E94C800E7CFDF91A2
:1002A000CF91089580E090E0892B29F00E94BE0054
:1002B00081110C940000089590E0FC01EE57FF4F6F
:1002C0003491FC01EA56FF4F2491FC01EC54FF4F9E
:1002D000E491EE2309F43BC0332339F1333091F03C
:1002E00038F43130A9F0323001F584B58F7D12C079
:1002F000373091F03830A1F03430B9F4809180007B
:100300008F7D03C0809180008F77809380000DC027
:1003100084B58F7784BD09C08091B0008F7703C00A
:100320008091B0008F7D8093B000F0E0EE0FFF1F52
:10033000E655FF4FA591B4918FB7F894EC916111F8
:1003400003C020952E2301C02E2B2C938FBF089520
:10035000CF93DF9390E0FC01EA56FF4F2491FC011C
:10036000EC54FF4F8491882361F190E0880F991F2E
:10037000FC01E858FF4FC591D491FC01E655FF4FB1
:10038000A591B491611109C09FB7F8948881209517
:1003900082238883EC912E230BC0623061F49FB7D7
:1003A000F8943881822F809583238883EC912E2BBB
:1003B0002C939FBF06C08FB7F894E8812E2B28831B
:1003C0008FBFDF91CF9108953FB7F89480914A0194
:1003D00090914B01A0914C01B0914D0126B5A89B85
:1003E00005C02F3F19F00196A11DB11D3FBFBA2FC7
:1003F000A92F982F8827820F911DA11DB11DBC0127
:10040000CD0142E0660F771F881F991F4A95D1F7EB
:1004100008952FB7F894609146017091470180913B
:100420004801909149012FBF0895CF92DF92EF923A
:10043000FF920F931F93CF93DF93CDB7DEB729972A
:100440000FB6F894DEBF0FBECDBF8C010E94E40151
:10045000D8011E96CD90DD90ED90FC905197DC0177
:10046000CB018C199D09AE09BF098C329140A105C1
:10047000B10560F3F894D80114968D919C9115976D
:100480009A8389831896ED91FC9119977F01BFEFAC
:10049000EB1AFB0A80818B83F80190810288F38933
:1004A000E02DD80154968C91992309F430C09081A5
:1004B000982B9C839081809589238D838D818E8359
:1004C00088E08F835C816D814B813F812E818981A2
:1004D0009A81D701508347FD252F3A952083262FF7
:1004E00039F0441F00C000006083000000C0F2CF5C
:1004F00038E04D9160830000019761F7D801539671
:10050000FC93EE9352974B833F832E833AC09081A6
:10051000982B9C839081809589238D838D818887FA
:1005200088E089875C816D814B8139852885898147
:100530009A81D701508347FD252F00C000C020833A
:1005400000C000C000C000C000C060830000262FB3
:100550003A9541F0441F000000C000C000C000C038
:1005600000C0E8CF38E04D9100C0608300C0019723
:1005700009F7D8015396FC93EE9352974B83398732
:1005800028879A83898378940E94E401F80166871A
:100590007787808B918B29960FB6F894DEBF0FBEBC
:1005A000CDBFDF91CF911F910F91FF90EF90DF9022
:1005B000CF9008950E943A0D1F920F920FB60F929E
:1005C00011242F933F934F935F936F937F938F9358
:1005D0009F93AF93BF93EF93FF938EED91E00E94B3
:1005E000C800FF91EF91BF91AF919F918F917F9143
:1005F0006F915F914F913F912F910F900FBE0F9090
:100600001F9018951F920F920FB60F9211242F93DF
:100610008F939F93EF93FF93E091EE01F091EF01A1
:100620008081E091F401F091F50182FD12C090818A
:100630008091F7018F5F8F732091F801821751F03D
:10064000E091F701F0E0E252FE4F958F8093F701C1
:1006500001C08081FF91EF919F918F912F910F9019
:100660000FBE0F901F9018951F920F920FB60F920A
:1006700011242F933F938F939F93AF93BF938091B8
:10068000460190914701A0914801B09149013091F4
:10069000450123E0230F2D3720F40196A11DB11D44
:1006A00005C026E8230F0296A11DB11D2093450128
:1006B0008093460190934701A0934801B09349016C
:1006C00080914A0190914B01A0914C01B0914D0154
:1006D0000196A11DB11D80934A0190934B01A093F7
:1006E0004C01B0934D01BF91AF919F918F913F917C
:1006F0002F910F900FBE0F901F901895EF92FF92C1
:100700000F931F93DC0112968D919C91139768179C
:10071000790708F047C017968C911797882381F0C6
:10072000489FA0011124452F289F90011124232FB9
:10073000089F80011124012FE89E70011124EF2CE5
:100740001D968C911D971A969C911A971896ED916B
:10075000FC911997891308C0CB01880F991F680F66
:10076000791F6E0F7F1F0AC0660F771F660F771FF6
:100770006E0F7F1FFB01E80FF11DE0821A968C912E
:100780001A97FB01E80FF11D40831B968C911B9774
:10079000FB01E80FF11D20831C968C91FB01E80FF3
:1007A000F11D00831F910F91FF90EF900895CF935B
:1007B000DF93EC0188859985009711F00E94A20CC7
:1007C0008E8187FD05C060E0DF91CF910C94A80178
:1007D000DF91CF91089585ED8093BC008091BC009E
:1007E00084FDFCCF10923A01089540919701262F85
:1007F00030E0240F311D21323105DCF420913A0123
:100800002430C9F4FC0180E090E0861758F4309160
:1008100097012191DC01A958BE4FA30FB11D2C9364
:100820000196F3CF80919701680F6093970180E064
:10083000089581E0089582E00895E0917501F091B6
:100840007601309729F010923C0110923B010994F7
:100850000895CF93DF93AC01E0914301F0914401FF
:100860003097F1F090913E0180913D019817C0F0D2
:1008700090E0292F30E02617370754F4D901AB5AFE
:10088000BE4FEA01C20FD31F88818C939F5FF1CFC7
:1008900010923E0160933D01CB01DF91CF9109940D
:1008A000DF91CF9108950895E0913E0180913D013F
:1008B000E81730F4F0E0EB5AFE4F808190E00895A5
:1008C0008FEF9FEF089590913E0180913D01981721
:1008D00050F4E92FF0E0EB5AFE4F208130E09F5FAB
:1008E00090933E0102C02FEF3FEFC9010895809120
:1008F0003D0190E020913E01821B91090895CF9324
:10090000DF9300D0CDB7DEB7CB01642F49835A8384
:100910000E94F5034981842F5A81952F0F900F90E3
:10092000DF91CF910895CF93DF931F92CDB7DEB7BC
:10093000698361E0CE0101960E94F50381E090E0B9
:100940000F90DF91CF910895CF93C9E290913D012F
:1009500080913E01981781F183EC92E00E9463043C
:1009600080935401811103C0109253011EC08F3F28
:1009700091F49091510180915201E0914F01E15029
:10098000CE9FF0011124E153FD4F209150012283AD
:10099000938384830AC0E091530191E09E0F90936A
:1009A0005301F0E0E15BFE4F80838091530184307E
:1009B00068F210925301CACFCF9108958F929F92FF
:1009C000AF92BF92CF92DF92EF92FF920F931F935D
:1009D000CF93DF93FC0130A53323E1F0A02EB22E9C
:1009E000F42E162FEC01C12CD12C4C0183E1880E82
:1009F000911C88819981C816D90660F4EA2C0B2DC8
:100A00002F2D412FB601C4010E947E03FFEFCF1AA4
:100A1000DF0AEFCFDF91CF911F910F91FF90EF9001
:100A2000DF90CF90BF90AF909F908F9008951F92CE
:100A30000F920FB60F9211242F933F934F935F9312
:100A40006F937F938F939F93AF93BF93EF93FF9396
:100A50008091B900887F803609F49CC068F588329F
:100A600009F45BC090F4803109F454C038F4882351
:100A700009F4F6C0883009F44DC0F6C0883109F495
:100A80004CC0803209F45DC0EFC0803409F468C006
:100A900048F4803309F455C0883309F0E5C08093E9
:100AA000BA01D8C0803509F44FC0883509F45DC05B
:100AB000883409F0D9C0D6C0883909F4C7C0A8F471
:100AC000883709F467C038F4883609F463C0803782
:100AD00009F460C0C9C0883809F4B8C0803909F485
:100AE0005FC0803809F0C0C05BC0803B09F486C09D
:100AF00038F4803A09F466C0883A09F47FC0B4C07B
:100B0000803C09F4A7C0883C09F4A4C0883B09F4E0
:100B10008AC0AAC08091DD0110C09091DC01809153
:100B2000DB01981770F5E091DC0181E08E0F809376
:100B3000DC01F0E0E554FE4F80818093BB0085EC42
:100B400086C08093BA018EC0E091DC0181E08E0FF7
:100B50008093DC018091BB00F0E0E554FE4F808380
:100B60009091DC018091DB016EC0E091DC0181E0BD
:100B70008E0F8093DC018091BB00F0E0E554FE4FC6
:100B800080838091390181116DC081E080933801AB
:100B900084EA61C083E080933A011092B901CFCF1B
:100BA0008091B901803208F051C0E091B90181E033
:100BB0008E0F8093B9018091BB00F0E0E756FE4FA5
:100BC0008083BDCF85EC8093BC0010923A01809168
:100BD000B901803230F4E091B901F0E0E756FE4F00
:100BE00010826091B90170E0E0913F01F091400105
:100BF00089E991E009951092B90136C084E08093AB
:100C00003A011092980110929701E0914101F09100
:100C10004201099580919701811105C081E080937F
:100C2000970110927701E091980181E08E0F8093F7
:100C30009801F0E0E958FE4F80818093BB009091CD
:100C4000980180919701981708F479CF85E88093EF
:100C5000BC000AC085EC8093BC0010923A0104C02D
:100C60001092BA010E94EB03FF91EF91BF91AF91F7
:100C70009F918F917F916F915F914F913F912F91B4
:100C80000F900FBE0F901F9018952F923F924F928A
:100C90005F926F927F928F929F92AF92BF92CF920C
:100CA000DF92EF92FF920F931F93CF93DF93CDB715
:100CB000DEB7A1970FB6F894DEBF0FBECDBF6C01B3
:100CC000162FF42E722E602EFC01838195818917D8
:100CD00069F085834FEF5FEFBA014787508B618BD7
:100CE000728B16821386148615861686843058F405
:100CF000823090F4813009F0F6C1F6011786108A2F
:100D0000118A128A61C0853009F4B9C008F469C03B
:100D1000863009F411C1E7C1F6014781508561852C
:100D2000728583849484A584B68484169506A60669
:100D3000B706A0F5268191E0922796832481213081
:100D400071F44A015B01FCE28F0EF1E09F1EA11CD1
:100D5000B11CF60183869486A586B6860EC0223025
:100D600061F4455B5F4F6F4F7F4FF60143875487B8
:100D700065877687833021F011C0833079F4F1CF15
:100D8000992361F0F60187859089A189B28901963E
:100D9000A11DB11D8787908BA18BB28BF601878532
:100DA0009089A189B2890697A105B1054CF01682F8
:100DB0001786108A118A128A88E0828381E08383F1
:100DC000F6018681882329F0062D272D4F2D612FCE
:100DD00004C000E020E040E060E0C6010E94DE04C4
:100DE00082C1F60187819085A185B28543855485AE
:100DF00065857685481759076A077B07E8F42481DB
:100E0000213021F44E96A11DB11D06C0223041F4BF
:100E10000F96A11DB11DF60183879487A587B6871C
:100E2000F60187859089A189B2890196A11DB11D1E
:100E30008787908BA18BB28BF60180819181A0E096
:100E4000B0E04785508961897289481759076A0758
:100E50007B0724F01786108A118A128A00E020E0AE
:100E600040E060E0C6010E94DE04F60167857089FB
:100E7000E62C072D2F2D412FC601439632C1F601D6
:100E800087819085A185B285438554856585768562
:100E9000481759076A077B07E8F42481213021F4B9
:100EA0004E96A11DB11D06C0223041F40F96A11D22
:100EB000B11DF60183879487A587B687F6018785DC
:100EC0009089A189B2890196A11DB11D8787908B58
:100ED000A18BB28BF60180819181A0E0B0E04785C3
:100EE000508961897289481759076A077B0744F05E
:100EF0001786108A118A128A968181E08927868353
:100F000000E020E040E060E0C6010E94DE04F6015F
:100F1000268167857089C6014396222341F020818E
:100F2000318121503109A901461B570BBA01E62C2A
:100F3000072D2F2D412FD5C0F60187819085A185E2
:100F4000B2854385548565857685481759076A07B4
:100F50007B07E8F42481213021F44E96A11DB11DB8
:100F600006C0223041F40F96A11DB11DF601838702
:100F70009487A587B687F60187859089A189B2896C
:100F80000196A11DB11D8787908BA18BB28BF601B5
:100F90008081918196958795A0E0B0E04785508942
:100FA00061897289481759076A077B0724F01786F9
:100FB000108A118A128A00E020E040E060E0C60159
:100FC0000E94DE04F60187849088A188B288B7FE6B
:100FD0002BC0E091DE01F091DF010190F081E02D66
:100FE0006DE28EED91E0099522273327A90128199A
:100FF00039094A095B0919A2CE0181965C017AE0A0
:10100000272E312C412C512CCA01B901A20191018A
:101010000E94C60B605DF50162935F0121153105E9
:101020004105510589F71AC0A501940119A2CE0105
:1010300081965C016AE0262E312C412C512CCA018C
:10104000B901A20191010E94C60B605DF501629396
:101050005F01211531054105510589F7B5018EED77
:1010600091E00E94DF0865E371E08EED91E00E945F
:10107000DF08F6012081318187859089A6014D5EC8
:101080005F4F5A01B9017695679520FD15C06150F3
:101090007109681B790BE62C072D2F2D412FC501F7
:1010A0000E947E03F6016081718176956795878540
:1010B0009089680F791F12C0680F791FE62C072DE1
:1010C0002F2D412FC5010E947E03F60160817181A1
:1010D0007695679587859089681B790B2F2D412F11
:1010E000C5010E947E03A1960FB6F894DEBF0FBE25
:1010F000CDBFDF91CF911F910F91FF90EF90DF90C7
:10110000CF90BF90AF909F908F907F906F905F90A7
:101110004F903F902F900895CF92DF92EF92FF92E1
:101120000F931F93CF93DF936C017A018B01C0E083
:10113000D0E0CE15DF0589F0D8016D918D01D60183
:10114000ED91FC910190F081E02DC6010995892B6C
:1011500011F47E0102C02196ECCFC701DF91CF913F
:101160001F910F91FF90EF90DF90CF900895EEEDDB
:10117000F1E0A089B18982E08C93A485B5851C92A9
:10118000A685B7858FEC8C93108EA489B58986E0EF
:101190008C93A289B3898C9180618C93A289B38945
:1011A0008C9188608C93A289B3898C9180688C9390
:1011B0000288F389E02D80818F7D808308956115F9
:1011C000710579F0FB0101900020E9F73197AF013B
:1011D000461B570BDC01ED91FC910280F381E02D61
:1011E000099480E090E00895CF93DF93CDB7DEB708
:1011F00065970FB6F894DEBF0FBECDBF789484B567
:10120000826084BD84B5816084BD85B5826085BD02
:1012100085B5816085BD80916E00816080936E0090
:101220001092810080918100826080938100809182
:101230008100816080938100809180008160809333
:1012400080008091B10084608093B1008091B000F3
:1012500081608093B00080917A00846080937A00EE
:1012600080917A00826080937A0080917A00816018
:1012700080937A0080917A00806880937A0010923F
:10128000C1001092BF021092C0021092C1021092CF
:10129000C20210927D0210927E0210927F02109282
:1012A00080020E9409026B017C014B015C0128EB6A
:1012B000820E2BE0921EA11CB11C0E9409026C152B
:1012C0007D058E059F0528F086169706A806B906A7
:1012D000A0F78EED91E09093BE028093BD020E9434
:1012E000B7080E94090260937D0270937E0280938A
:1012F0007F029093800266E271E08091BD0290913E
:10130000BE020E94DF080E9409026B017C014B01B2
:101310005C018AE0880E911CA11CB11C0E9409028C
:101320006C157D058E059F0528F086169706A80684
:10133000B906A0F711E01093910284E88093BA00F7
:101340008DE194E0909342018093410189E294E021
:101350009093400180933F0110923E0110923D0115
:1013600010923C0110923B0110923A011093390106
:101370001092380161E082E10E945C0161E083E14A
:101380000E945C018091B9008E7F8093B9008091AA
:10139000B9008D7F8093B90088E48093B80085E41C
:1013A0008093BC0084EA94E09093440180934301CD
:1013B0000E94B708E0914E01E03108F08AC081E058
:1013C0008E0F80934E01EE2EF12C99E2E99FF001F1
:1013D0001124E153FD4F10A720E1C22ED12CD18260
:1013E000C0821A8218861F86188A198A1A8A83E090
:1013F0008E871B871C8682E08D87198380E490E0AE
:101400009E838D830E940D0C9A878987009741F0F7
:1014100020E4DC011D922A95E9F7DC82CB8204C02E
:101420001E821D821C821B8286E08F838A81882314
:1014300041F061E086E00E94A80160E086E00E9441
:101440005C01EAEBF0E0E491F0E0EE0FFF1FE655FF
:10145000FF4F859194919C8B8B8BECE9F0E0E491AC
:10146000ED8B89E28E9D80018F9D100D1124D80196
:10147000AE51BD4F85E1FE01319601900D928A95E6
:10148000E1F7CE0101960E94D703F801EE51FD4F1E
:101490006F0101531D4FD80159968C9187FD08C0EB
:1014A00061E00E94A80160E0F801818D0E945C016A
:1014B00089E28E9DF0018F9DF00D1124E153FD4FC7
:1014C00081E0848B838D948D892B19F0C6010E9455
:1014D00015022091E902222339F10091EA021091CC
:1014E000EB02215051F030E040E050E06FEF7FEF31
:1014F00080E090E00E94E80B02C020E030E0F801BC
:101500004091E6025091E702CF01801B910B8417B6
:10151000950740F44081429FC001439F900D1124E4
:101520009193EECF1092E9028FECE82E82E0F82E34
:10153000C12CD12C860101531D4FD80198968C9156
:101540008823F1F10E940902F70167837087818780
:101550009287D8011296EC918E2F90E0FC01319782
:10156000E830F10520F5EC5CFF4F0C94070C00E02F
:1015700020E011C000E020E040E20EC000E020E0EA
:1015800040E80AC000E020E04FEF0DC000E02FEF80
:1015900009C000E02FEF40E06FEF06C00FEF01C081
:1015A00000E020E040E060E0C7010E944506C7017E
:1015B0004396F701238D348D232B11F00E941502E1
:1015C000F9E2CF0ED11C29E2E20EF11C80E9C81627
:1015D00082E0D80609F0AECF0E94E4016B017C01E5
:1015E0000E94E401DC01CB018C199D09AE09BF0901
:1015F000883E9340A105B10598F30E94520194CF13
:10160000CF93DF93CFE5D5E0A997CE0143960E9413
:10161000D70382E0CF3CD807B9F7DF91CF91089587
:101620001092E1011092E00188EE93E0A0E0B0E0BA
:101630008093E2019093E301A093E401B093E5016C
:101640002AE031E03093DF012093DE0125EC30E029
:101650003093EB012093EA0124EC30E03093ED016C
:101660002093EC0120EC30E03093EF012093EE0169
:1016700021EC30E03093F1012093F00122EC30E0D6
:101680003093F3012093F20126EC30E03093F50122
:101690002093F4011092F7011092F8011092F901D1
:1016A0001092FA011092810210928202109283022B
:1016B0001092840210928502109286021092870284
:1016C000109288021092890210928A0210928B0264
:1016D00010928C0210928D0210928E0210928F0244
:1016E000109290021092C6021092C5028093C70217
:1016F0009093C802A093C902B093CA028AE191E014
:101700009093C4028093C30288EF92E0EFECF2E082
:1017100058E021E04FEF32E0DC0197975C9311969F
:101720002C9311962C9311962C9311961C92178240
:1017300010861186128613861486158616861786DD
:10174000108A118A128A1D962C9311961C92168A61
:10175000158A108E178A15964C9311961C92148E2A
:10176000138E13962C9311961C9211963C931196FE
:101770002C9311A212A213A214A218961C92B9962D
:10178000899665E0EF35F60739F60895A1E21A2E3D
:10179000AA1BBB1BFD010DC0AA1FBB1FEE1FFF1F15
:1017A000A217B307E407F50720F0A21BB30BE40B65
:1017B000F50B661F771F881F991F1A9469F76095AC
:1017C0007095809590959B01AC01BD01CF01089566
:1017D000052E97FB1EF400940E94FF0B57FD07D0C7
:1017E0000E94C60B07FC03D04EF40C94FF0B5095DF
:1017F0004095309521953F4F4F4F5F4F08959095FD
:101800008095709561957F4F8F4F9F4F0895EE0F94
:10181000FF1F0590F491E02D0994CF93DF93823060
:10182000910510F482E090E0E0916105F09162058D
:1018300020E030E0C0E0D0E0309711F140815181EC
:1018400048175907C0F04817590761F482819381FE
:10185000209719F09B838A832BC090936205809315
:10186000610526C02115310519F04217530718F4F8
:101870009A01BE01DF01EF010280F381E02DDCCF90
:101880002115310509F1281B390B2430310590F45D
:1018900012968D919C9113976115710521F0FB01B2
:1018A0009383828304C09093620580936105FD0158
:1018B000329644C0FD01E20FF31F819391932250B1
:1018C00031092D933C933AC020915F05309160051A
:1018D000232B41F4209102013091030130936005E4
:1018E00020935F0520910001309101012115310500
:1018F00041F42DB73EB74091040150910501241BDE
:10190000350BE0915F05F0916005E217F307A0F455
:101910002E1B3F0B2817390778F0AC014E5F5F4F45
:101920002417350748F04E0F5F1F50936005409312
:101930005F058193919302C0E0E0F0E0CF01DF9179
:10194000CF9108950F931F93CF93DF93009709F4DE
:101950008CC0FC01329713821282009161051091B4
:1019600062050115110581F420813181820F931FD9
:1019700020915F05309160052817390779F5F093BC
:101980006005E0935F0571C0D80140E050E0AE17FC
:10199000BF0750F412962D913C911397AD0121157C
:1019A000310509F1D901F3CF9D01DA013383228397
:1019B00060817181860F971F8217930769F4EC018C
:1019C00028813981260F371F2E5F3F4F31832083B7
:1019D0008A819B8193838283452B29F4F09362054E
:1019E000E093610542C01396FC93EE931297ED01CC
:1019F000499159919E01240F351FE217F30771F4A5
:101A000080819181840F951F029611969C938E93ED
:101A10008281938113969C938E931297E0E0F0E07D
:101A2000D80112968D919C911397009719F0F801A7
:101A30008C01F6CF8D919C9198012E5F3F4F820FC4
:101A4000931F20915F05309160052817390769F4CD
:101A5000309729F4109262051092610502C013823A
:101A600012821093600500935F05DF91CF911F9163
:101A70000F91089581E090E0F8940C943F0D10E0F0
:101A8000C5E6D0E004C0FE010E94070C2196C636D0
:081A9000D107C9F7F894FFCF5C
:101A980000006305800000000000E9008C08B20027
:101AA8009000A40030010000000093047F04770434
:101AB800630454045304564D4450565F317C315FDF
:081AC800564D4450560D0A0072
:107E0000112484B714BE81FFF0D085E080938100F7
:107E100082E08093C00088E18093C10086E0809377
:107E2000C20080E18093C4008EE0C9D0259A86E02C
:107E300020E33CEF91E0309385002093840096BBD3
:107E4000B09BFECF1D9AA8958150A9F7CC24DD24C4
:107E500088248394B5E0AB2EA1E19A2EF3E0BF2EE7
:107E6000A2D0813461F49FD0082FAFD0023811F036
:107E7000013811F484E001C083E08DD089C08234E0
:107E800011F484E103C0853419F485E0A6D080C0E4
:107E9000853579F488D0E82EFF2485D0082F10E0AE
:107EA000102F00270E291F29000F111F8ED06801E7
:107EB0006FC0863521F484E090D080E0DECF843638
:107EC00009F040C070D06FD0082F6DD080E0C81688
:107ED00080E7D80618F4F601B7BEE895C0E0D1E017
:107EE00062D089930C17E1F7F0E0CF16F0E7DF06D8
:107EF00018F0F601B7BEE89568D007B600FCFDCFD4
:107F0000A601A0E0B1E02C9130E011968C91119780
:107F100090E0982F8827822B932B1296FA010C0160
:107F200087BEE89511244E5F5F4FF1E0A038BF0790
:107F300051F7F601A7BEE89507B600FCFDCF97BE46
:107F4000E89526C08437B1F42ED02DD0F82E2BD052
:107F50003CD0F601EF2C8F010F5F1F4F84911BD097
:107F6000EA94F801C1F70894C11CD11CFA94CF0C13
:107F7000D11C0EC0853739F428D08EE10CD085E9AC
:107F80000AD08FE07ACF813511F488E018D01DD067
:107F900080E101D065CF982F8091C00085FFFCCF94
:107FA0009093C60008958091C00087FFFCCF809118
:107FB000C00084FD01C0A8958091C6000895E0E648
:107FC000F0E098E1908380830895EDDF803219F02E
:107FD00088E0F5DFFFCF84E1DECF1F93182FE3DFCA
:107FE0001150E9F7F2DF1F91089580E0E8DFEE27F6
:047FF000FF270994CA
:027FFE00040479
:0400000300007E007B
:00000001FF