:100000000C946E000C9496000C9496000C94960040
:100010000C9496000C9496000C9496000C94960008
:100020000C9496000C9496000C9496000C949600F8
:100030000C9496000C9496000C9496000C949600E8
:100040000C943C030C9496000C940A030C94E40268
:100050000C9496000C9496000C9496000C949600C8
:100060000C9426050C9496005B0C5E0C620C660CDE
:100070006A0C6D0C720C740C9E06A806A806340758
:100080008A07EF07900839090000000024002700C4
:100090002A0000000008000201000003040700001D
:1000A000000000000000010204081020408001024E
:1000B00004081020010204081020000000002500A0
:1000C00028002B00040404040404040402020202B5
:1000D0000202030303030303B40CA40C11241FBE88
:1000E000CFEFD8E0DEBFCDBF11E0A0E0B1E0E8E6A1
:1000F000FEE102C005900D92A833B107D9F725E0C3
:10010000A8E3B1E001C01D92A339B207E1F710E006
:10011000CDE6D0E004C02197FE010E94EF0DCC3661
:10012000D107C9F70E94600A0C94270F0C940000B5
:10013000FC01918D828D981761F0828DDF01A80FEF
:10014000B11D5D968C91928D9F5F9F73928F90E011
:1001500008958FEF9FEF0895FC01918D828D981780
:1001600031F0828DE80FF11D858D90E008958FEFBD
:100170009FEF0895FC01918D228D892F90E0805C86
:100180009F4F821B91098F73992708958EED91E0FF
:100190000E94BA0021E0892B09F420E0822F089503
:1001A000FC01848DDF01A80FB11DA35ABF4F2C9114
:1001B000848D90E001968F739927848FA689B789E3
:1001C0002C93A089B1898C9180648C93938D848DBC
:1001D000981306C00288F389E02D80818F7D80838B
:1001E0000895EF92FF920F931F93CF93DF93EC014B
:1001F00081E0888F9B8D8C8D981305C0E889F989E3
:10020000808185FD24C0F62E0B8D10E00F5F1F4FFF
:100210000F731127E02E8C8DE8120CC00FB607FC6F
:10022000FACFE889F989808185FFF5CFCE010E9458
:10023000D000F1CF8B8DFE01E80FF11DE35AFF4F87
:10024000F0820B8FEA89FB898081806207C0EE898A
:10025000FF896083E889F98980818064808381E0F7
:1002600090E0DF91CF911F910F91FF90EF90089553
:10027000CF93DF93EC01888D8823C9F0EA89FB894D
:10028000808185FD05C0A889B9898C9186FD0FC044
:100290000FB607FCF5CF808185FFF2CFA889B98919
:1002A0008C9185FFEDCFCE010E94D000E7CFDF918A
:1002B000CF91089580E090E0892B29F00E94C6003C
:1002C00081110C940000089590E0FC01EE56FF4F60
:1002D0003491FC01EA55FF4F2491FC01EC53FF4F90
:1002E000E491EE2309F43BC0332339F1333091F02C
:1002F00038F43130A9F0323001F584B58F7D12C069
:10030000373091F03830A1F03430B9F4809180006A
:100310008F7D03C0809180008F77809380000DC017
:1003200084B58F7784BD09C08091B0008F7703C0FA
:100330008091B0008F7D8093B000F0E0EE0FFF1F42
:10034000E654FF4FA591B4918FB7F894EC916111E9
:1003500003C020952E2301C02E2B2C938FBF089510
:10036000CF93DF9390E0FC01EA55FF4F2491FC010D
:10037000EC53FF4F8491882361F190E0880F991F1F
:10038000FC01E857FF4FC591D491FC01E654FF4FA3
:10039000A591B491611109C09FB7F8948881209507
:1003A00082238883EC912E230BC0623061F49FB7C7
:1003B000F8943881822F809583238883EC912E2BAB
:1003C0002C939FBF06C08FB7F894E8812E2B28830B
:1003D0008FBFDF91CF9108953FB7F89480914A0184
:1003E00090914B01A0914C01B0914D0126B5A89B75
:1003F00005C02F3F19F00196A11DB11D3FBFBA2FB7
:10040000A92F982F8827820F911DA11DB11DBC0116
:10041000CD0142E0660F771F881F991F4A95D1F7DB
:1004200008952FB7F894609146017091470180912B
:100430004801909149012FBF0895CF92DF92EF922A
:10044000FF920F931F93CF93DF93CDB7DEB729971A
:100450000FB6F894DEBF0FBECDBF8C010E94EC0139
:10046000D8011E96CD90DD90ED90FC905197DC0167
:10047000CB018C199D09AE09BF098C329140A105B1
:10048000B10560F3F894D80114968D919C9115975D
:100490009A8389831896ED91FC9119977F01BFEF9C
:1004A000EB1AFB0A80818B83F80190810288F38923
:1004B000E02DD80154968C91992309F430C0908195
:1004C000982B9C839081809589238D838D818E8349
:1004D00088E08F835C816D814B813F812E81898192
:1004E0009A81D701508347FD252F3A952083262FE7
:1004F00039F0441F00C000006083000000C0F2CF4C
:1005000038E04D9160830000019761F7D801539660
:10051000FC93EE9352974B833F832E833AC0908196
:10052000982B9C839081809589238D838D818887EA
:1005300088E089875C816D814B8139852885898137
:100540009A81D701508347FD252F00C000C020832A
:1005500000C000C000C000C000C060830000262FA3
:100560003A9541F0441F000000C000C000C000C028
:1005700000C0E8CF38E04D9100C0608300C0019713
:1005800009F7D8015396FC93EE9352974B83398722
:1005900028879A83898378940E94EC01F801668702
:1005A0007787808B918B29960FB6F894DEBF0FBEAC
:1005B000CDBFDF91CF911F910F91FF90EF90DF9012
:1005C000CF9008950E94220F1F920F920FB60F92A4
:1005D00011242F933F934F935F936F937F938F9348
:1005E0009F93AF93BF93EF93FF938EED91E00E94A3
:1005F000D000FF91EF91BF91AF919F918F917F912B
:100600006F915F914F913F912F910F900FBE0F907F
:100610001F9018951F920F920FB60F9211242F93CF
:100620008F939F93EF93FF93E091EE01F091EF0191
:100630008081E091F401F091F50182FD12C090817A
:100640008091F7018F5F8F732091F801821751F02D
:10065000E091F701F0E0E252FE4F958F8093F701B1
:1006600001C08081FF91EF919F918F912F910F9009
:100670000FBE0F901F9018951F920F920FB60F92FA
:1006800011242F933F938F939F93AF93BF938091A8
:10069000460190914701A0914801B09149013091E4
:1006A000450123E0230F2D3720F40196A11DB11D34
:1006B00005C026E8230F0296A11DB11D2093450118
:1006C0008093460190934701A0934801B09349015C
:1006D00080914A0190914B01A0914C01B0914D0144
:1006E0000196A11DB11D80934A0190934B01A093E7
:1006F0004C01B0934D01BF91AF919F918F913F916C
:100700002F910F900FBE0F901F901895EF92FF92B0
:100710000F931F93DC0112968D919C91139768178C
:10072000790708F047C017968C911797882381F0B6
:10073000489FA0011124452F289F90011124232FA9
:10074000089F80011124012FE89E70011124EF2CD5
:100750001D968C911D971A969C911A971896ED915B
:10076000FC911997891308C0CB01880F991F680F56
:10077000791F6E0F7F1F0AC0660F771F660F771FE6
:100780006E0F7F1FFB01E80FF11DE0821A968C911E
:100790001A97FB01E80FF11D40831B968C911B9764
:1007A000FB01E80FF11D20831C968C91FB01E80FE3
:1007B000F11D00831F910F91FF90EF900895CF934B
:1007C000DF93EC0188859985009711F00E948A0ECD
:1007D0008E8187FD05C060E0DF91CF910C94B00160
:1007E000DF91CF91089585ED8093BC008091BC008E
:1007F00084FDFCCF10923A01089540919701262F75
:1008000030E0240F311D21323105DCF420913A0112
:100810002430C9F4FC0180E090E0861758F4309150
:1008200097012191DC01A958BE4FA30FB11D2C9354
:100830000196F3CF80919701680F6093970180E054
:10084000089581E0089582E00895E0917501F091A6
:100850007601309729F010923C0110923B010994E7
:100860000895CF93DF93AC01E0914301F0914401EF
:100870003097F1F090913E0180913D019817C0F0C2
:1008800090E0292F30E02617370754F4D901AB5AEE
:10089000BE4FEA01C20FD31F88818C939F5FF1CFB7
:1008A00010923E0160933D01CB01DF91CF910994FD
:1008B000DF91CF9108950895E0913E0180913D012F
:1008C000E81730F4F0E0EB5AFE4F808190E0089595
:1008D0008FEF9FEF089590913E0180913D01981711
:1008E00050F4E92FF0E0EB5AFE4F208130E09F5F9B
:1008F00090933E0102C02FEF3FEFC9010895809110
:100900003D0190E020913E01821B91090895CF9313
:10091000DF9300D0CDB7DEB7CB01642F49835A8374
:100920000E94FD034981842F5A81952F0F900F90CB
:10093000DF91CF910895CF93DF931F92CDB7DEB7AC
:10094000698361E0CE0101960E94FD0381E090E0A1
:100950000F90DF91CF910895CF93CCE290913D011C
:1009600080913E019817B9F183EC92E00E946B04EC
:1009700080935401811103C01092530125C08F3F11
:10098000C9F4209150019091510180915201E09160
:100990004F01E150CE9FF0011124E153FD4F33810F
:1009A000333021F42683978380870EC0228393837C
:1009B00084830AC0E091530191E09E0F909353010C
:1009C000F0E0E15BFE4F808380915301843030F290
:1009D00010925301C3CFCF9108958F929F92AF92FF
:1009E000BF92CF92DF92EF92FF920F931F93CF931C
:1009F000DF93FC0133A53323E1F0A02EB22EF42EB9
:100A0000162FEC01C12CD12C4C0186E1880E911CD3
:100A100088819981C816D90660F4EA2C0B2D2F2DF8
:100A2000412FB601C4010E948603FFEFCF1ADF0AEF
:100A3000EFCFDF91CF911F910F91FF90EF90DF905B
:100A4000CF90BF90AF909F908F9008951F920F927C
:100A50000FB60F9211242F933F934F935F936F9391
:100A60007F938F939F93AF93BF93EF93FF93809167
:100A7000B900887F803609F49CC068F5883209F493
:100A80005BC090F4803109F454C038F4882309F431
:100A9000F6C0883009F44DC0F6C0883109F44CC066
:100AA000803209F45DC0EFC0803409F468C048F4B6
:100AB000803309F455C0883309F0E5C08093BA014A
:100AC000D8C0803509F44FC0883509F45DC088343A
:100AD00009F0D9C0D6C0883909F4C7C0A8F488374E
:100AE00009F467C038F4883609F463C0803709F424
:100AF00060C0C9C0883809F4B8C0803909F45FC043
:100B0000803809F0C0C05BC0803B09F486C038F46F
:100B1000803A09F466C0883A09F47FC0B4C0803CCA
:100B200009F4A7C0883C09F4A4C0883B09F48AC032
:100B3000AAC08091DD0110C09091DC018091DB01A1
:100B4000981770F5E091DC0181E08E0F8093DC0155
:100B5000F0E0E554FE4F80818093BB0085EC86C0B9
:100B60008093BA018EC0E091DC0181E08E0F80930A
:100B7000DC018091BB00F0E0E554FE4F8083909152
:100B8000DC018091DB016EC0E091DC0181E08E0F21
:100B90008093DC018091BB00F0E0E554FE4F808340
:100BA0008091390181116DC081E08093380184EA20
:100BB00061C083E080933A011092B901CFCF809158
:100BC000B901803208F051C0E091B90181E08E0F87
:100BD0008093B9018091BB00F0E0E756FE4F80831F
:100BE000BDCF85EC8093BC0010923A018091B90191
:100BF000803230F4E091B901F0E0E756FE4F108208
:100C00006091B90170E0E0913F01F091400189E904
:100C100091E009951092B90136C084E080933A01C1
:100C20001092980110929701E0914101F0914201D8
:100C3000099580919701811105C081E0809397010A
:100C400010927701E091980181E08E0F80939801D6
:100C5000F0E0E958FE4F80818093BB0090919801AD
:100C600080919701981708F479CF85E88093BC00AC
:100C70000AC085EC8093BC0010923A0104C0109227
:100C8000BA010E94F303FF91EF91BF91AF919F9141
:100C90008F917F916F915F914F913F912F910F9025
:100CA0000FBE0F901F9018953F924F925F926F92D8
:100CB0007F928F929F92AF92BF92CF92DF92EF92EC
:100CC000FF920F931F93CF93DF93CDB7DEB72E978D
:100CD0000FB6F894DEBF0FBECDBFDC0113963C917A
:100CE000139715969C9115973917B1F015963C936B
:100CF0001597CC24CA94DC2C76015296CD92DD92C5
:100D0000ED92FC92559719961C9219971E961D927A
:100D10001D921D921C925197432E512CF201319736
:100D2000E830F10508F089C3F02E822EC42E162F6C
:100D3000BA87A987E45CFF4F0C94EF0DA985BA85AB
:100D400052961D921D921D921C925597CD018EC2F6
:100D5000E985FA854288538864887588411451046E
:100D600061047104C9F49781933031F498E096835B
:100D700091E09783908710C0A985BA8517963C9318
:100D8000179712969C91129716969C931697149605
:100D90009C91149718969C93E985FA854285538512
:100DA0006485758586859785A089B189841795079F
:100DB000A607B707A0F5218591E0092F0227018733
:100DC0002481213059F4DB01CA01845D9E4FAF4F6D
:100DD000BF4F86879787A08BB18B11C0223079F4E3
:100DE000455B5F4F6F4F7F4FA985BA851E964D9328
:100DF0005D936D937C935197333021F010C0333065
:100E000071F4EECF002359F0D301C2010196A11D68
:100E1000B11DE985FA85828B938BA48BB58BE9850F
:100E2000FA8582899389A489B5890697A105B105B8
:100E30005CF01186128A138A148A158A868182834D
:100E40008781838380858483E985FA8581858823EA
:100E500031F00F2D282D4C2D612FCF0107C200E05E
:100E600020E040E060E000C2E985FA858285938554
:100E7000A485B585468557856089718948175907C6
:100E80006A077B07F8F42481213021F44E96A11DD6
:100E9000B11D07C0223049F40F96A11DB11DE9858F
:100EA000FA8586879787A08BB18BE985FA85828939
:100EB0009389A489B5890196A11DB11D828B938B5D
:100EC000A48BB58BA985BA858D919C91A0E0B0E0EB
:100ED000E985FA85428953896489758948175907D4
:100EE0006A077B0724F0128A138A148A158A00E0A5
:100EF00020E040E060E089859A850E94ED04E98564
:100F0000FA8562897389EF2C082D2C2D412FCF0192
:100F1000469603C1E985FA8582859385A485B585C2
:100F20004685578560897189481759076A077B0785
:100F3000F8F42481213021F44E96A11DB11D07C083
:100F4000223049F40F96A11DB11DE985FA858687E7
:100F50009787A08BB18BE985FA8582899389A489CB
:100F6000B5890196A11DB11D828B938BA48BB58B86
:100F7000A985BA858D919C91A0E0B0E0E985FA85BC
:100F80004289538964897589481759076A077B071D
:100F900044F0128A138A148A158A918581E0892780
:100FA000818700E020E040E060E089859A850E942A
:100FB000ED04E985FA85218562897389CF0146961A
:100FC000222341F020813181215031095901A61A93
:100FD000B70AB501EF2C082D2C2D412F9EC0E985B5
:100FE000FA8582859385A485B58546855785608970
:100FF0007189481759076A077B07F8F42481213063
:1010000021F4CC96A11DB11D07C0223049F44E96A3
:10101000A11DB11DE985FA8586879787A08BB18BC5
:10102000E985FA8582899389A489B5890196A11DEC
:10103000B11D828B938BA48BB58B00E020E040E048
:1010400060E089859A850E94ED04A985BA852D9175
:101050003C91119752968D919D910D90BC91A02D30
:10106000E985FA8576965F01B901769567952B013A
:10107000612C712C20FD2AC084159505A605B705A5
:1010800044F0A985BA8552961D921D921D921C921C
:10109000559761507109E985FA8582899389681BA2
:1010A000790BEF2C082D2C2D412FC5010E948603B2
:1010B000A985BA856D917C91119776956795529621
:1010C0008D919C915397680F791F24C0481659063B
:1010D0006A067B0634F4E985FA85128A138A148A33
:1010E000158AA985BA8552968D919C915397680F60
:1010F000791FEF2C082D2C2D412FC5010E9486034E
:10110000E985FA85608171817695679582899389F1
:10111000681B790B2C2D412FC5010E9486038DC1C0
:10112000E985FA8582859385A485B58546855785A9
:1011300060897189481759076A077B07F8F4248189
:10114000213021F40696A11DB11D07C0223049F4BB
:101150000396A11DB11DE985FA8586879787A08B27
:10116000B18BE985FA8582899389A489B58901962D
:10117000A11DB11D828B938BA48BB58BE985FA855C
:1011800082899389A489B5898F3F9105A105B1050D
:1011900044F0128A138A148A158A918581E089277E
:1011A0008187E985FA85A185428853886488758896
:1011B0006F2D70E080E090E0912CA12CB12C2C2DB3
:1011C00030E040E050E029833A834B835C83212F59
:1011D00030E040E050E02D833E834F835887AA23C0
:1011E00079F0C12CD12C7601CA94A701960124195B
:1011F00035094609570929013A010E94700D08C0B6
:10120000A30192010E94700DC12CD12C7601CA94C9
:10121000A70196010E94A20D022FA3019201C50110
:10122000B4010E94700DA70196010E94A20DB22E7A
:10123000A301920169817A818B819C810E94700D4A
:10124000A70196010E94A20D122FA30192016D81A8
:101250007E818F8198850E94700DA70196010E9462
:10126000A20D622F2B2D412F89859A850E94ED04B6
:10127000E4C0E985FA8582859385A485B585468590
:10128000578560897189481759076A077B07F8F401
:101290002481213021F40696A11DB11D07C0223002
:1012A00049F40396A11DB11DE985FA8586879787C4
:1012B000A08BB18BE985FA8582899389A489B58948
:1012C0000196A11DB11D828B938BA48BB58BE985F3
:1012D000FA8582899389A489B5898F3F9105A105F3
:1012E000B10524F0128A138A148A158AC12CD12CD4
:1012F000E0E0F0E0E12CF12C20E030E0A985BA85B7
:101300006D917C912617370708F097C0C7010E949E
:10131000DB0DA985BA8552964C91460F409545350F
:1013200050F4642F660F460F842F809550E060E0E4
:1013300070E0682B1FC04A3A80F44555642F660F51
:10134000640F462F4095842F90E0A0E0B0E04C0160
:101350005D01962AB501A4010DC04A5A642F660F9B
:10136000460F842F809550E060E070E0BA01552769
:101370004427582BA985BA8558968D919C915997E9
:101380002817390708F051C04B01AA24BB24452E69
:10139000562E672E7724042D142F5D963C90332013
:1013A00091F0032D10E0089DD001099DB00D189D0E
:1013B000B00D11248B2E439CC0011124092F439D95
:1013C000A0011124152FA985BA8593964C91939766
:1013D00090965C9190975E968D919C915F97451346
:1013E00003C08E0F9F1F07C08C0D9D1D5C01A40EB6
:1013F000B11CD5011C92A985BA8590964C915C01CF
:10140000A40EB11CD5018C92A985BA8591964C91F8
:101410004C01840E911CD4010C93A985BA85929637
:101420004C91840F911DDC011C932F5F3F4FF3946F
:10143000339644E0C40ED11C61CF2E960FB6F894BB
:10144000DEBF0FBECDBFDF91CF911F910F91FF90F7
:10145000EF90DF90CF90BF90AF909F908F907F9054
:101460006F905F904F903F900895CF92DF92EF92F0
:10147000FF920F931F93CF93DF936C017A018B013F
:10148000C0E0D0E0CE15DF0589F0D8016D918D0167
:10149000D601ED91FC910190F081E02DC6010995F6
:1014A000892B11F47E0102C02196ECCFC701DF9198
:1014B000CF911F910F91FF90EF90DF90CF90089503
:1014C000CF93DF93CDB7DEB765970FB6F894DEBF45
:1014D0000FBECDBF789484B5826084BD84B5816031
:1014E00084BD85B5826085BD85B5816085BD8091EF
:1014F0006E00816080936E00109281008091810067
:10150000826080938100809181008160809381005E
:10151000809180008160809380008091B100846020
:101520008093B1008091B00081608093B000809181
:101530007A00846080937A0080917A008260809340
:101540007A0080917A00816080937A0080917A009D
:10155000806880937A001092C1001092BF021092AE
:10156000C0021092C1021092C20210927D0210922B
:101570007E0210927F02109280020E9411026B0183
:101580007C014B015C0128EB820E2BE0921EA11C1A
:10159000B11C0E9411026C157D058E059F0528F077
:1015A00086169706A806B906A0F78EED91E09093EF
:1015B000BE028093BD02E091EE01F091EF0182E066
:1015C0008083E091EA01F091EB011082E091EC015F
:1015D000F091ED0180E180831092F601E091F2013B
:1015E000F091F30186E08083E091F001F091F10148
:1015F000808180618083E091F001F091F101808130
:1016000088608083E091F001F091F1018081806831
:101610008083E091F001F091F10180818F7D8083E2
:101620000E94110260937D0270937E0280937F027C
:10163000909380028091BD029091BE02DC01ED91F9
:10164000FC910280F381E02D41E150E066E271E01F
:1016500009950E9411026B017C014B015C01BAE00B
:101660008B0E911CA11CB11C0E9411026C157D05F2
:101670008E059F0528F086169706A806B906A0F7DE
:1016800011E01093910284E88093BA0085E294E01F
:10169000909342018093410181E394E09093400153
:1016A00080933F0110923E0110923D0110923C0147
:1016B00010923B0110923A011093390110923801B7
:1016C00061E082E10E94640161E083E10E946401C3
:1016D0008091B9008E7F8093B9008091B9008D7F91
:1016E0008093B90088E48093B80085E48093BC00BF
:1016F0008CEA94E09093440180934301E0914E0181
:10170000E03108F08AC081E08E0F80934E01EE2E0A
:10171000F12C2CE2E29FF0011124E153FD4F13A7BD
:1017200021E1C22ED12CD182C0821A8218861F8656
:10173000188A198A1A8A83E08E871B871C8682E0A2
:101740008D87198384E490E09E838D830E94F50D3C
:101750009A878987009741F024E4DC011D922A953D
:10176000E9F7DC82CB8204C01E821D821C821B82B0
:1017700086E08F838A81882341F061E086E00E94C1
:10178000B00160E086E00E946401EAECF0E0E491E0
:10179000F0E0EE0FFF1FE654FF4F859194919C8B74
:1017A0008B8BECEAF0E0E491ED8B8CE28E9D800176
:1017B0008F9D100D1124D801AB51BD4F85E1FE0165
:1017C000319601900D928A95E1F7CE0101960E9423
:1017D000DF03F801EB51FD4F6F0101531D4FD8019D
:1017E0005C968C9187FD08C061E00E94B00160E0CA
:1017F000F801848D0E9464018CE28E9DF0018F9D22
:10180000F00D1124E153FD4F81E0878B868D978D7C
:10181000892B19F0C6010E941D022091EC0222239F
:1018200039F10091ED021091EE02215051F030E0BB
:1018300040E050E06FEF7FEF80E090E00E94A20D6B
:1018400002C020E030E0F8014091E9025091EA0244
:10185000CF01801B910B8417950740F44081429F74
:10186000C001439F900D11249193EECF1092EC0292
:101870008FECE82E82E0F82EC12CD12C860101538A
:101880001D4FD8019B968C918823F1F10E94110283
:10189000F7016287738784879587D8011296EC9148
:1018A0008E2F90E0FC013197E830F10520F5EC5CDB
:1018B000FF4F0C94EF0D00E020E011C000E020E0AD
:1018C00040E20EC000E020E040E80AC000E020E076
:1018D0004FEF0DC000E02FEF09C000E02FEF40E018
:1018E0006FEF06C00FEF01C000E020E040E060E0D5
:1018F000C7010E945406C7014696F701268D378D11
:10190000232B11F00E941D02FCE2CF0ED11C2CE211
:10191000E20EF11C80ECC81682E0D80609F0AECFCA
:101920000E94EC016B017C010E94EC01DC01CB0107
:101930008C199D09AE09BF09883E9340A105B105E8
:1019400098F30E945A0194CFCF93DF93CFE8D5E06C
:10195000AC97CE0146960E94DF0382E0CF3CD807C9
:10196000B9F7DF91CF9108951092E1011092E00153
:1019700088EE93E0A0E0B0E08093E2019093E30171
:10198000A093E401B093E5012AE031E03093DF0158
:101990002093DE0125EC30E03093EB012093EA0147
:1019A00024EC30E03093ED012093EC0120EC30E0AA
:1019B0003093EF012093EE0121EC30E03093F10100
:1019C0002093F00122EC30E03093F3012093F201F8
:1019D00026EC30E03093F5012093F4011092F701EA
:1019E0001092F8011092F9011092FA0110928102FE
:1019F0001092820210928302109284021092850249
:101A00001092860210928702109288021092890228
:101A100010928A0210928B0210928C0210928D0208
:101A200010928E0210928F02109290021092C602B3
:101A30001092C5028093C7029093C802A093C90276
:101A4000B093CA028AE191E09093C4028093C302EA
:101A50008BEF92E0EFECF2E038E021E05FEF42E064
:101A6000DC019A973C9311962C9311962C93119626
:101A70002C9311963C9311962C9311962C931196BE
:101A80001C92128613861486158616861786108A6F
:101A9000118A128A138A148A158A1D962C9311961C
:101AA0001C92118E108E138E128E15965C931196C9
:101AB0001C92178E168E13962C9311961C921196CB
:101AC0004C9311962C9314A215A216A217A2189645
:101AD0001C92BC968C9665E0EF38F60709F60895DF
:101AE000DB018F939F930E94C10DBF91AF91A29F85
:101AF000800D911DA39F900DB29F900D112408950C
:101B0000A1E21A2EAA1BBB1BFD010DC0AA1FBB1F01
:101B1000EE1FFF1FA217B307E407F50720F0A21B73
:101B2000B30BE40BF50B661F771F881F991F1A94E0
:101B300069F760957095809590959B01AC01BD010A
:101B4000CF010895052E97FB1EF400940E94B90D55
:101B500057FD07D00E94800D07FC03D04EF40C9473
:101B6000B90D50954095309521953F4F4F4F5F4FA0
:101B7000089590958095709561957F4F8F4F9F4FF9
:101B800008950E94CC0DA59F900DB49F900DA49F29
:101B9000800D911D11240895A29FB001B39FC00133
:101BA000A39F700D811D1124911DB29F700D811D89
:101BB0001124911D0895AA1BBB1B51E107C0AA1F48
:101BC000BB1FA617B70710F0A61BB70B881F991FDE
:101BD0005A95A9F780959095BC01CD010895EE0F17
:101BE000FF1F0590F491E02D0994CF93DF9382308D
:101BF000910510F482E090E0E0919105F09192055A
:101C000020E030E0C0E0D0E0309711F14081518118
:101C100048175907C0F04817590761F4828193812A
:101C2000209719F09B838A832BC090939205809311
:101C3000910526C02115310519F04217530718F4F4
:101C40009A01BE01DF01EF010280F381E02DDCCFBC
:101C50002115310509F1281B390B2430310590F489
:101C600012968D919C9113976115710521F0FB01DE
:101C70009383828304C09093920580939105FD0124
:101C8000329644C0FD01E20FF31F819391932250DD
:101C900031092D933C933AC020918F0530919005E6
:101CA000232B41F4209102013091030130939005E0
:101CB00020938F05209100013091010121153105FC
:101CC00041F42DB73EB74091040150910501241B0A
:101CD000350BE0918F05F0919005E217F307A0F422
:101CE0002E1B3F0B2817390778F0AC014E5F5F4F72
:101CF0002417350748F04E0F5F1F5093900540930F
:101D00008F058193919302C0E0E0F0E0CF01DF9175
:101D1000CF9108950F931F93CF93DF93009709F40A
:101D20008CC0FC01329713821282009191051091B0
:101D300092050115110581F420813181820F931FD5
:101D400020918F05309190052817390779F5F09388
:101D50009005E0938F0571C0D80140E050E0AE17C8
:101D6000BF0750F412962D913C911397AD012115A8
:101D7000310509F1D901F3CF9D01DA0133832283C3
:101D800060817181860F971F8217930769F4EC01B8
:101D900028813981260F371F2E5F3F4F31832083E3
:101DA0008A819B8193838283452B29F4F09392054A
:101DB000E093910542C01396FC93EE931297ED01C8
:101DC000499159919E01240F351FE217F30771F4D1
:101DD00080819181840F951F029611969C938E931A
:101DE0008281938113969C938E931297E0E0F0E0AA
:101DF000D80112968D919C911397009719F0F801D4
:101E00008C01F6CF8D919C9198012E5F3F4F820FF0
:101E1000931F20918F05309190052817390769F499
:101E2000309729F4109292051092910502C0138206
:101E300012821093900500938F05DF91CF911F912F
:101E40000F91089581E090E0F8940C94270F10E032
:101E5000CDE6D0E004C0FE010E94EF0D2196CE3603
:081E6000D107C9F7F894FFCF88
:101E680000009305800000000000F100350ABA0068
:101E78009800AC003801000000009B0487047F0430
:101E88006B045C045B04564D4450565F317C315FF3
:081E9800564D4450560D0A009E
:00000001FF
