:100000000C9466000C948E000C948E000C948E0060
:100010000C948E000C948E000C948E000C948E0028
:100020000C948E000C948E000C948E000C948E0018
:100030000C948E000C948E000C948E000C948E0008
:100040000C9406050C948E000C94D4040C94AE040D
:100050000C948E000C948E000C948E000C948E00E8
:100060000C9450050C948E00B308B608BB08BF086A
:10007000C308C608CA08CC080000000024002700F6
:100080002A0000000000250028002B0004040404BE
:100090000404040402020202020203030303030332
:1000A000010204081020408001020408102001020F
:1000B00004081020000000080002010000030407EB
:1000C00000000000000000007E06F00811241FBEA2
:1000D000CFEFD8E0DEBFCDBF25E0A8E3B1E001C09F
:1000E0001D92A131B207E1F711E0A0E0B1E0E2EE2C
:1000F000F4E102C005900D92A833B107D9F710E0E2
:10010000C5E6D0E004C02197FE010E942C09C43648
:10011000D107C9F70E9480070C94640A0C94000070
:1001200090E0FC01EC54FF4F2491FC01E056FF4F9E
:100130003491FC01E457FF4FE491EE23B1F1222307
:1001400039F1233091F038F42130A9F0223001F553
:1001500084B58F7D12C0273091F02830A1F0243073
:10016000B9F4809180008F7D03C0809180008F77EB
:10017000809380000DC084B58F7784BD09C08091C5
:10018000B0008F7703C08091B0008F7D8093B00066
:10019000F0E0EE0FFF1FEE57FF4FA591B4918FB720
:1001A000F894EC913E2B3C938FBF0895CF92DF9251
:1001B000EF92FF920F931F93CF93DF936C017A011D
:1001C0008B01C0E0D0E0CE15DF0589F0D8016D913C
:1001D0008D01D601ED91FC910190F081E02DC601D9
:1001E0000995892B11F47E0102C02196ECCFC7013D
:1001F000DF91CF911F910F91FF90EF90DF90CF9003
:100200000895E0915D01F0915E01309729F0109220
:10021000D3011092D20109940895CF93DF93AC01DA
:10022000E091DA01F091DB013097F1F09091D50186
:100230008091D4019817C0F090E0292F30E0261764
:10024000370754F4D901A35CBE4FEA01C20FD31F94
:1002500088818C939F5FF1CF1092D5016093D40178
:10026000CB01DF91CF910994DF91CF910895FC01EB
:10027000918D828D981761F0828DDF01A80FB11DDD
:100280005D968C91928D9F5F9F73928F90E0089501
:100290008FEF9FEF0895FC01918D828D981731F0BB
:1002A000828DE80FF11D858D90E008958FEF9FEF0F
:1002B0000895FC01918D228D892F90E0805C9F4FE5
:1002C000821B91098F73992708958CED91E00E940C
:1002D000590121E0892B09F420E0822F0895FC01C7
:1002E000848DDF01A80FB11DA35ABF4F2C91848DBF
:1002F00090E001968F739927848FA689B7892C93F4
:10030000A089B1898C9180648C93938D848D98138E
:1003100006C00288F389E02D80818F7D8083089557
:10032000EF92FF920F931F93CF93DF93EC0181E045
:10033000888F9B8D8C8D981305C0E889F989808101
:1003400085FD24C0F62E0B8D10E00F5F1F4F0F733D
:100350001127E02E8C8DE8120CC00FB607FCFACFE7
:10036000E889F989808185FFF5CFCE010E946F0170
:10037000F1CF8B8DFE01E80FF11DE35AFF4FF082A4
:100380000B8FEA89FB898081806207C0EE89FF8933
:100390006083E889F98980818064808381E090E0CE
:1003A000DF91CF911F910F91FF90EF900895CF9320
:1003B000DF93EC01888D8823C9F0EA89FB8980816D
:1003C00085FD05C0A889B9898C9186FD0FC00FB63F
:1003D00007FCF5CF808185FFF2CFA889B9898C9180
:1003E00085FFEDCFCE010E946F01E7CFDF91CF9166
:1003F000089580E090E0892B29F00E946501811129
:100400000C94000008953FB7F8948091CB0190912F
:10041000CC01A091CD01B091CE0126B5A89B05C01D
:100420002F3F19F00196A11DB11D3FBFBA2FA92F73
:10043000982F8827820F911DA11DB11DBC01CD01F0
:1004400042E0660F771F881F991F4A95D1F70895DC
:100450002FB7F8946091C7017091C8018091C901CC
:100460009091CA012FBF089585ED8093BC008091C3
:10047000BC0084FDFCCF1092D101089540917F0112
:10048000262F30E0240F311D21323105DCF420917C
:10049000D1012430C9F4FC0180E090E0861758F4C3
:1004A00030917F012191DC01A15ABE4FA30FB11DF4
:1004B0002C930196F3CF80917F01680F60937F01A9
:1004C00080E0089581E0089582E008950895E09124
:1004D000D5018091D401E81730F4F0E0E35CFE4FE1
:1004E000808190E008958FEF9FEF08959091D5015E
:1004F0008091D401981750F4E92FF0E0E35CFE4FAF
:10050000208130E09F5F9093D50102C02FEF3FEF35
:10051000C90108958091D40190E02091D501821BFA
:1005200091090895CF93DF9300D0CDB7DEB7CB010B
:10053000642F49835A830E943E024981842F5A8145
:10054000952F0F900F90DF91CF910895CF93DF9368
:100550001F92CDB7DEB7698361E0CE0101960E949C
:100560003E0281E090E00F90DF91CF9108958F924D
:100570009F92AF92BF92CF92DF92EF92FF920F9332
:100580001F93CF93DF93DC01E12CF12CC12CD12CF4
:10059000812C912C8D919C911197881699060CF0C5
:1005A00058C050968D919C9151978816990608F0E5
:1005B00046C055968C915597882389F0689FF00125
:1005C00011247F2F489FF00111245F2F289FF001F5
:1005D00011243F2F089FC0011124192F04C0102F90
:1005E000322F542F762F5B968C915B9758969C9167
:1005F00058975696ED91FC915797891303C0EC0DCF
:10060000FD1D07C0EE0DFF1D5F01A80EB11CE50129
:10061000188358968C9158975F01A80EB11CE5017C
:10062000788359968C9159975F01A80EB11CE5010A
:1006300058835A968C915A97E80FF11D3083DFEF5B
:100640008D1A9D0A83E0C80ED11CC4E0EC0EF11C8B
:10065000A1CFDF91CF911F910F91FF90EF90DF908D
:10066000CF90BF90AF909F908F9008958F929F9260
:10067000AF92BF92EF92FF920F931F93CF93DF93AE
:10068000CDB7DEB729970FB6F894DEBF0FBECDBF4A
:100690007C01DC0113968C91813029F008F466C04E
:1006A000843058F063C0F701158683A1882309F4CC
:1006B0005DC0C7010E94B70259C0F70185819681CC
:1006C000A781B08581849284A384B4848816990616
:1006D000AA06BB0638F5548131E0352734833381CF
:1006E000323069F44C015D01F4EF8F0EF1E09F1E92
:1006F000A11CB11CF70181869286A386B486F701FE
:100700003381333041F48C599F4FAF4FBF4F8187B6
:100710009287A387B487D7011D968C911D978F5F11
:100720001D968C93F701948183A1992319F081116F
:1007300007C009C0882339F000E020E040E060E015
:10074000C7010E94B702D7011D968C911D978B306F
:1007500068F014961C9214971D961C921D9788E0C1
:1007600012968C93129781E013968C938701025F07
:100770001F4FF70186899789892B09F4A5C00E942C
:100780000302D7015C968D909D90AD90BC905F97D1
:10079000DC01CB0188199909AA09BB098C32914067
:1007A000A105B10560F3F894D70152968D919C9103
:1007B00053979A8389835696ED91FC9157975F01E1
:1007C000BFEFAB1ABB0A80818987F701968500A02D
:1007D000F1A1E02DD70192968C91992309F430C0B4
:1007E0009081982B98879081809589238F838F8122
:1007F0008C8388E08B8358856F8149853B812C8170
:1008000089819A81D501508347FD252F3A95208310
:10081000262F39F0441F00C000006083000000C094
:10082000F2CF38E04D9160830000019761F7D80165
:100830005396FC93EE93529749873B832C833AC09F
:100840009081982B98879081809589238F838F81C1
:100850008E8388E08D8358856F8149853D812E8107
:1008600089819A81D501508347FD252F00C000C0A2
:10087000208300C000C000C000C000C06083000032
:10088000262F3A9541F0441F000000C000C000C070
:1008900000C000C0E8CF38E04D9100C0608300C0C8
:1008A000019709F7D8015396FC93EE935297498725
:1008B0003D832E839A83898378940E940302F701F3
:1008C000648F758F868F978F29960FB6F894DEBF49
:1008D0000FBECDBFDF91CF911F910F91FF90EF9091
:1008E000BF90AF909F908F900895CF93C4E2909166
:1008F000D4018091D501981769F181EC92E00E94B2
:10090000760280933C01811103C010923B011BC011
:100910008F3F79F4E09138019091390180913A014B
:10092000E150CE9FF0011124E353FD4F9283838366
:100930000AC0E0913B0191E09E0F90933B01F0E0F3
:10094000E85CFE4F808380913B01833080F21092FF
:100950003B01CDCFCF9108950E945F0A1F920F9265
:100960000FB60F9211242F933F934F935F936F9382
:100970007F938F939F93AF93BF93EF93FF938CEDF0
:1009800091E00E946F01FF91EF91BF91AF919F9114
:100990008F917F916F915F914F913F912F910F9028
:1009A0000FBE0F901F9018951F920F920FB60F92C7
:1009B00011242F938F939F93EF93FF93E091EC017A
:1009C000F091ED018081E091F201F091F30182FD5F
:1009D00012C090818091F5018F5F8F732091F60195
:1009E000821751F0E091F501F0E0E452FE4F958F4F
:1009F0008093F50101C08081FF91EF919F918F91CC
:100A00002F910F900FBE0F901F9018951F920F926D
:100A10000FB60F9211242F933F938F939F93AF9311
:100A2000BF938091C7019091C801A091C901B09175
:100A3000CA013091C60123E0230F2D3720F401961F
:100A4000A11DB11D05C026E8230F0296A11DB11DF1
:100A50002093C6018093C7019093C801A093C90158
:100A6000B093CA018091CB019091CC01A091CD01AE
:100A7000B091CE010196A11DB11D8093CB01909341
:100A8000CC01A093CD01B093CE01BF91AF919F91C6
:100A90008F913F912F910F900FBE0F901F9018953F
:100AA0001F920F920FB60F9211242F933F934F93E3
:100AB0005F936F937F938F939F93AF93BF93EF93C6
:100AC000FF938091B900887F803609F49CC068F557
:100AD000883209F45BC090F4803109F454C038F4D2
:100AE000882309F4F6C0883009F44DC0F6C0883177
:100AF00009F44CC0803209F45DC0EFC0803409F4C1
:100B000068C048F4803309F455C0883309F0E5C063
:100B10008093A201D8C0803509F44FC0883509F40C
:100B20005DC0883409F0D9C0D6C0883909F4C7C07F
:100B3000A8F4883709F467C038F4883609F463C02C
:100B4000803709F460C0C9C0883809F4B8C080395A
:100B500009F45FC0803809F0C0C05BC0803B09F475
:100B600086C038F4803A09F466C0883A09F47FC038
:100B7000B4C0803C09F4A7C0883C09F4A4C0883BF9
:100B800009F48AC0AAC08091C50110C09091C40127
:100B90008091C301981770F5E091C40181E08E0F38
:100BA0008093C401F0E0ED55FE4F80818093BB003F
:100BB00085EC86C08093A2018EC0E091C40181E0E3
:100BC0008E0F8093C4018091BB00F0E0ED55FE4F85
:100BD00080839091C4018091C3016EC0E091C401F3
:100BE00081E08E0F8093C4018091BB00F0E0ED5551
:100BF000FE4F80838091D00181116DC081E0809390
:100C0000CF0184EA61C083E08093D1011092A101F9
:100C1000CFCF8091A101803208F051C0E091A101B5
:100C200081E08E0F8093A1018091BB00F0E0EF572F
:100C3000FE4F8083BDCF85EC8093BC001092D10124
:100C40008091A101803230F4E091A101F0E0EF57F2
:100C5000FE4F10826091A10170E0E091D601F09109
:100C6000D70181E891E009951092A10136C084E096
:100C70008093D1011092800110927F01E091D80100
:100C8000F091D901099580917F01811105C081E022
:100C900080937F0110925F01E091800181E08E0FCF
:100CA00080938001F0E0E15AFE4F80818093BB0089
:100CB0009091800180917F01981708F479CF85E8A1
:100CC0008093BC000AC085EC8093BC001092D101D7
:100CD00004C01092A2010E943402FF91EF91BF91D3
:100CE000AF919F918F917F916F915F914F913F91C4
:100CF0002F910F900FBE0F901F901895CF93DF93F9
:100D00001092DF011092DE0188EE93E0A0E0B0E0E7
:100D10008093E0019093E101A093E201B093E3019D
:100D20002AE031E03093DD012093DC0125EC30E056
:100D30003093E9012093E80124EC30E03093EB019B
:100D40002093EA0120EC30E03093ED012093EC0198
:100D500021EC30E03093EF012093EE0122EC30E003
:100D60003093F1012093F00126EC30E03093F30151
:100D70002093F2011092F5011092F6011092F70102
:100D80001092F80110927F0210928002109281025C
:100D900010928202109283021092840210928502B5
:100DA0001092860210928702109288021092890295
:100DB00010928A0210928B0210928C0210928D0275
:100DC00010928E021092C4021092C3028093C50248
:100DD0009093C602A093C702B093C8028AE191E043
:100DE0009093C2028093C10288E08093CF0281E099
:100DF0008093D0021092D1021092D2021092D302AC
:100E00001092D4021092D5021092D6021092D702FC
:100E10001092D8021092D9021092DA028093DB026B
:100E20001092DC021092DE021092DD021092E002BB
:100E30001092DF029FEF9093E1021092E202109273
:100E4000E4021092E3028093E5021092E60292E03F
:100E50009093E7028093E8021092E9021092EA026E
:100E60001092EB021092EC021092F002A1EFB2E0AD
:100E7000E4E1F3E038E02FEF12963C9312971396DB
:100E80008C931397EF016F97188215961D921D9200
:100E90001D921C92189719961D921D921D921C92DC
:100EA0001C9729961882219688832196188251963C
:100EB0001C921E92509753961C921E925297259602
:100EC00028832196188257961C921E925697239635
:100ED00088832196188221969883219688835C9630
:100EE0001D921D921D921C925F9710829496B4964B
:100EF00045E0AD30B40709F0BFCFDF91CF91089541
:100F0000789484B5826084BD84B5816084BD85B5E4
:100F1000826085BD85B5816085BD80916E008160F0
:100F200080936E0010928100809181008260809396
:100F30008100809181008160809381008091800098
:100F40008160809380008091B10084608093B100C3
:100F50008091B00081608093B00080917A008460BD
:100F600080937A0080917A00826080937A008091E9
:100F70007A00816080937A0080917A008068809303
:100F80007A001092C1001092BD021092BE0210921F
:100F9000BF021092C00210927B0210927C0210924B
:100FA0007D0210927E020E9428026B017C014B019F
:100FB0005C0128EB820E2BE0921EA11CB11C0E944A
:100FC00028026C157D058E059F0528F0861697066C
:100FD000A806B906A0F78CED91E09093BC0280932F
:100FE000BB02E091EC01F091ED0182E08083E091A1
:100FF000E801F091E9011082E091EA01F091EB0142
:1010000080E180831092F401E091F001F091F10110
:1010100086E08083E091EE01F091EF0180818061B4
:101020008083E091EE01F091EF0180818860808300
:10103000E091EE01F091EF01808180688083E09182
:10104000EE01F091EF0180818F7D80830E94280264
:1010500060937B0270937C0280937D0290937E026A
:101060008091BB029091BC02DC01ED91FC91028069
:10107000F381E02D41E150E066E271E009950E94C4
:1010800028026B017C014B015C01BAE08B0E911CC4
:10109000A11CB11C0E9428026C157D058E059F05C0
:1010A00028F086169706A806B906A0F781E0809377
:1010B0008F0294E89093BA0021E031E03093D90197
:1010C0002093D8012DE031E03093D7012093D60151
:1010D0001092D5011092D4011092D3011092D20136
:1010E0001092D1018093D0011092CF0182E10E9431
:1010F000900083E10E9490008091B9008E7F8093E0
:10110000B9008091B9008D7F8093B90088E4809305
:10111000B80085E48093BC0085E794E09093DB0100
:101120008093DA0114E2CDECD2E0E12CF12C8BA11A
:101130008823C9F10E9428026D837E838F8398875C
:101140001E9DF0011F9DF00D1124E353FD4FE28120
:101150008E2F90E0FC013197E830F10520F5EC5C32
:10116000FF4F0C942C0900E020E012C000E020E0CA
:1011700040E86FEF15C000E020E04FEFFACF00E04D
:1011800020E04FEF0CC000E02FEF08C000E02FEF91
:1011900040E0EFCF0FEF01C000E020E040E060E072
:1011A000CE010E9436032FEFE21AF20AA49680E1E4
:1011B000E816F10409F0BBCF0E9403026B017C0129
:1011C0000E940302DC01CB018C199D09AE09BF0905
:1011D000883E9340A105B10598F30E94F901A3CF81
:1011E000CF93DF93CDE0D5E0A4978E899F890097B8
:1011F00011F00E94C7098C8987FD26C0082E000CBB
:10120000990BFC01E056FF4F2491FC01E457FF4F7E
:1012100084918823C9F090E0880F991FFC01E85859
:10122000FF4F45915491FC01EE57FF4FA591B491AA
:101230009FB7F894FA0180812095822380838C9156
:10124000E22FE823EC939FBFF2E0CD3CDF0709F0EB
:10125000CBCFDF91CF910895EE0FFF1F0590F49152
:10126000E02D0994CF93DF938230910510F482E052
:1012700090E0E0910F05F091100520E030E0C0E033
:10128000D0E0309711F14081518148175907C0F0E3
:101290004817590761F482819381209719F09B8345
:1012A0008A832BC09093100580930F0526C02115CB
:1012B000310519F04217530718F49A01BE01DF01F6
:1012C000EF010280F381E02DDCCF2115310509F11A
:1012D000281B390B2430310590F412968D919C9186
:1012E00013976115710521F0FB019383828304C07C
:1012F0009093100580930F05FD01329644C0FD01C7
:10130000E20FF31F81939193225031092D933C9367
:101310003AC020910D0530910E05232B41F4209108
:1013200002013091030130930E0520930D052091A9
:101330000001309101012115310541F42DB73EB76F
:101340004091040150910501241B350BE0910D05DE
:10135000F0910E05E217F307A0F42E1B3F0B2817A0
:10136000390778F0AC014E5F5F4F2417350748F01E
:101370004E0F5F1F50930E0540930D05819391937F
:1013800002C0E0E0F0E0CF01DF91CF9108950F932C
:101390001F93CF93DF93009709F48CC0FC01329721
:1013A0001382128200910F0510911005011511058D
:1013B00081F420813181820F931F20910D0530919E
:1013C0000E052817390779F5F0930E05E0930D0502
:1013D00071C0D80140E050E0AE17BF0750F412963C
:1013E0002D913C911397AD012115310509F1D901DA
:1013F000F3CF9D01DA013383228360817181860FEF
:10140000971F8217930769F4EC0128813981260F11
:10141000371F2E5F3F4F318320838A819B819383C7
:101420008283452B29F4F0931005E0930F0542C009
:101430001396FC93EE931297ED01499159919E01F9
:10144000240F351FE217F30771F480819181840F17
:10145000951F029611969C938E9382819381139689
:101460009C938E931297E0E0F0E0D80112968D9154
:101470009C911397009719F0F8018C01F6CF8D918C
:101480009C9198012E5F3F4F820F931F20910D0575
:1014900030910E052817390769F4309729F4109216
:1014A000100510920F0502C01382128210930E05D0
:1014B00000930D05DF91CF911F910F91089581E069
:1014C00090E0F8940C94640A10E0C5E6D0E004C003
:1014D000FE010E942C092196C636D107C9F7F8945F
:0214E000FFCF3C
:1014E200000011058000000000009001D6005901A3
:1014F20037014B01D70100000000A60292028A02C6
:10150200760267026602564D4450565F317C315F67
:08151200564D4450560D0A002D
:107E0000112484B714BE81FFF0D085E080938100F7
:107E100082E08093C00088E18093C10086E0809377
:107E2000C20080E18093C4008EE0C9D0259A86E02C
:107E300020E33CEF91E0309385002093840096BBD3
:107E4000B09BFECF1D9AA8958150A9F7CC24DD24C4
:107E500088248394B5E0AB2EA1E19A2EF3E0BF2EE7
:107E6000A2D0813461F49FD0082FAFD0023811F036
:107E7000013811F484E001C083E08DD089C08234E0
:107E800011F484E103C0853419F485E0A6D080C0E4
:107E9000853579F488D0E82EFF2485D0082F10E0AE
:107EA000102F00270E291F29000F111F8ED06801E7
:107EB0006FC0863521F484E090D080E0DECF843638
:107EC00009F040C070D06FD0082F6DD080E0C81688
:107ED00080E7D80618F4F601B7BEE895C0E0D1E017
:107EE00062D089930C17E1F7F0E0CF16F0E7DF06D8
:107EF00018F0F601B7BEE89568D007B600FCFDCFD4
:107F0000A601A0E0B1E02C9130E011968C91119780
:107F100090E0982F8827822B932B1296FA010C0160
:107F200087BEE89511244E5F5F4FF1E0A038BF0790
:107F300051F7F601A7BEE89507B600FCFDCF97BE46
:107F4000E89526C08437B1F42ED02DD0F82E2BD052
:107F50003CD0F601EF2C8F010F5F1F4F84911BD097
:107F6000EA94F801C1F70894C11CD11CFA94CF0C13
:107F7000D11C0EC0853739F428D08EE10CD085E9AC
:107F80000AD08FE07ACF813511F488E018D01DD067
:107F900080E101D065CF982F8091C00085FFFCCF94
:107FA0009093C60008958091C00087FFFCCF809118
:107FB000C00084FD01C0A8958091C6000895E0E648
:107FC000F0E098E1908380830895EDDF803219F02E
:107FD00088E0F5DFFFCF84E1DECF1F93182FE3DFCA
:107FE0001150E9F7F2DF1F91089580E0E8DFEE27F6
:047FF000FF270994CA
:027FFE00040479
:0400000300007E007B
:00000001FF