:100000000C946E000C9496000C9496000C94960040
:100010000C9496000C9496000C9496000C94960008
:100020000C9496000C9496000C9496000C949600F8
:100030000C9496000C9496000C9496000C949600E8
:100040000C9490070C9496000C9496000C949600D7
:100050000C9496000C9496000C9496000C949600C8
:100060000C94DA070C949600CA03D403D4033F041B
:100070009504FA049B054406D40AD70ADB0ADF0A72
:10008000E30AE60AEB0AED0A00000000240027005C
:100090002A0000000008000201000003040700001D
:1000A000000000000000010204081020408001024E
:1000B00004081020010204081020000000002500A0
:1000C00028002B00040404040404040402020202B5
:1000D00002020303030303030809210B11241FBEBB
:1000E000CFEFD8E0DEBFCDBF11E0A0E0B1E0EAEE97
:1000F000F9E102C005900D92A631B107D9F724E0CD
:10010000A6E1B1E001C01D92AC35B207E1F710E005
:10011000CDE6D0E004C02197FE010E94B00BCC36A2
:10012000D107C9F70E9460090C94E80C0C940000F8
:10013000CF92DF92EF92FF920F931F93CF93DF93B3
:100140006C017A018B01C0E0D0E0CE15DF0589F0AB
:10015000D8016D918D01D601ED91FC910190F08156
:10016000E02DC6010995892B11F47E0102C021966C
:10017000ECCFC701DF91CF911F910F91FF90EF90CE
:10018000DF90CF900895E0913C01F0913D013097D0
:1001900029F01092AE011092AD0109940895CF9309
:1001A000DF93AC01E091B501F091B6013097F1F029
:1001B0009091B0018091AF019817C0F090E0292F85
:1001C00030E02617370754F4D901A45EBE4FEA0188
:1001D000C20FD31F88818C939F5FF1CF1092B00123
:1001E0006093AF01CB01DF91CF910994DF91CF9163
:1001F000089590E0FC01EE56FF4F3491FC01EA5562
:10020000FF4F2491FC01EC53FF4FE491EE2309F4DE
:100210003BC0332339F1333091F038F43130A9F059
:10022000323001F584B58F7D12C0373091F038300F
:10023000A1F03430B9F4809180008F7D03C08091AB
:1002400080008F77809380000DC084B58F7784BD48
:1002500009C08091B0008F7703C08091B0008F7D7E
:100260008093B000F0E0EE0FFF1FE654FF4FA59122
:10027000B4918FB7F894EC91611103C020952E23AF
:1002800001C02E2B2C938FBF0895CF93DF9390E066
:10029000FC01EA55FF4F2491FC01EC53FF4F849180
:1002A000882361F190E0880F991FFC01E857FF4F08
:1002B000C591D491FC01E654FF4FA591B491611111
:1002C00009C09FB7F8948881209582238883EC9198
:1002D0002E230BC0623061F49FB7F8943881822FCF
:1002E000809583238883EC912E2B2C939FBF06C08F
:1002F0008FB7F894E8812E2B28838FBFDF91CF91A1
:1003000008953FB7F8948091A6019091A701A0911C
:10031000A801B091A90126B5A89B05C02F3F19F0EF
:100320000196A11DB11D3FBFBA2FA92F982F882775
:10033000820F911DA11DB11DBC01CD0142E0660FD0
:10034000771F881F991F4A95D1F70895CF92DF92A2
:10035000EF92FF920F931F93CF93DF93CDB7DEB74A
:1003600029970FB6F894DEBF0FBECDBF8C010E9457
:100370008101D8011E96CD90DD90ED90FC905197B3
:10038000DC01CB018C199D09AE09BF098C3291406B
:10039000A105B10560F3F894D80114968D919C9154
:1003A00015979A8389831896ED91FC9119977F018F
:1003B000BFEFEB1AFB0A80818B83F80190810288E2
:1003C000F389E02DD80154968C91992309F430C01B
:1003D0009081982B9C839081809589238D838D813A
:1003E0008E8388E08F835C816D814B813F812E817C
:1003F00089819A81D701508347FD252F3A95208323
:10040000262F39F0441F00C000006083000000C0A8
:10041000F2CF38E04D9160830000019761F7D80179
:100420005396FC93EE9352974B833F832E833AC0AF
:100430009081982B9C839081809589238D838D81D9
:10044000888788E089875C816D814B813985288523
:1004500089819A81D701508347FD252F00C000C0B4
:10046000208300C000C000C000C000C06083000046
:10047000262F3A9541F0441F000000C000C000C084
:1004800000C000C0E8CF38E04D9100C0608300C0DC
:10049000019709F7D8015396FC93EE9352974B833B
:1004A000398728879A83898378940E948101F8018B
:1004B00066877787808B918B29960FB6F894DEBF7D
:1004C0000FBECDBFDF91CF911F910F91FF90EF90A5
:1004D000DF90CF900895EF92FF920F931F93DC016E
:1004E00012968D919C9113976817790708F047C071
:1004F00017968C911797882381F0489FA0011124AB
:10050000452F289F90011124232F089F800111243B
:10051000012FE89E70011124EF2C1D968C911D97E0
:100520001A969C911A971896ED91FC911997891338
:1005300008C0CB01880F991F680F791F6E0F7F1FAE
:100540000AC0660F771F660F771F6E0F7F1FFB01B4
:10055000E80FF11DE0821A968C911A97FB01E80FC3
:10056000F11D40831B968C911B97FB01E80FF11D39
:1005700020831C968C91FB01E80FF11D00831F91D5
:100580000F91FF90EF90089585ED8093BC008091CE
:10059000BC0084FDFCCF1092AC01089540915E0137
:1005A000262F30E0240F311D21323105DCF420915B
:1005B000AC012430C9F4FC0180E090E0861758F4C7
:1005C00030915E012191DC01A25CBE4FA30FB11DF1
:1005D0002C930196F3CF80915E01680F60935E01CA
:1005E00080E0089581E0089582E008950895E09103
:1005F000B0018091AF01E81730F4F0E0E45EFE4F07
:10060000808190E008958FEF9FEF08959091B00161
:100610008091AF01981750F4E92FF0E0E45EFE4FAF
:10062000208130E09F5F9093B00102C02FEF3FEF39
:10063000C90108958091AF0190E02091B001821B23
:1006400091090895CF93DF9300D0CDB7DEB7CB01EA
:10065000642F49835A830E94CE024981842F5A8194
:10066000952F0F900F90DF91CF910895CF93DF9347
:100670001F92CDB7DEB7698361E0CE0101960E947B
:10068000CE0281E090E00F90DF91CF9108958F929C
:100690009F92AF92BF92CF92DF92EF92FF920F9311
:1006A0001F93CF93DF93FC0130A53323E1F0A02EFD
:1006B000B22EF42E162FEC01C12CD12C4C0183E16B
:1006C000880E911C88819981C816D90660F4EA2C9D
:1006D0000B2D2F2D412FB601C4010E946B02FFEF9D
:1006E000CF1ADF0AEFCFDF91CF911F910F91FF90CB
:1006F000EF90DF90CF90BF90AF909F908F90089534
:100700003F924F925F926F927F928F929F92AF92A1
:10071000BF92CF92DF92EF92FF920F931F93CF93EE
:10072000DF93CDB7DEB72A970FB6F894DEBF0FBEC2
:10073000CDBFDC0113968C91139715969C9115975C
:100740008917B1F015968C931597CC24CA94DC2C9C
:1007500076011F96CD92DD92ED92FC9252971696FD
:100760001C9216971B961D921D921D921C921E970D
:10077000482E512CF2013197E830F10508F068C39A
:10078000F02E822EC42E162FBA87A987EC5CFF4F5D
:100790000C94B00BA985BA851F961D921D921D92CF
:1007A0001C925297CD016DC2E985FA85478150852B
:1007B0006185728543845484658476844416550625
:1007C00066067706C8F5268191E0922796832481F4
:1007D000213089F42A013B01FCE24F0EF1E05F1E5B
:1007E000611C711CA985BA851B964D925D926D9214
:1007F0007C921E970FC0223069F4455B5F4F6F4FAC
:100800007F4FE985FA8543875487658776878330EC
:1008100021F012C0833081F4F0CF992369F0E9858B
:10082000FA8587859089A189B2890196A11DB11D9C
:100830008787908BA18BB28BE985FA858785908914
:10084000A189B2890697A105B1054CF016821786D9
:10085000108A118A128A88E0828381E08383E98585
:10086000FA858681882331F00F2D282D4C2D612F9C
:10087000CF0107C200E020E040E060E000C2E9856F
:10088000FA8587819085A185B285438554856585E4
:100890007685481759076A077B07F8F424812130C9
:1008A00021F44E96A11DB11D07C0223049F40F96C8
:1008B000A11DB11DE985FA8583879487A587B68731
:1008C000E985FA8587859089A189B2890196A11D5C
:1008D000B11D8787908BA18BB28BA985BA858D912D
:1008E0009C91A0E0B0E0E985FA854785508961894F
:1008F0007289481759076A077B0724F01786108A00
:10090000118A128A00E020E040E060E089859A8543
:100910000E944703E985FA8567857089EF2C082DC9
:100920002C2D412FCF01439603C1E985FA8587819C
:100930009085A185B2854385548565857685481760
:1009400059076A077B07F8F42481213021F44E9679
:10095000A11DB11D07C0223049F40F96A11DB11D84
:10096000E985FA8583879487A587B687E985FA851F
:1009700087859089A189B2890196A11DB11D8787BC
:10098000908BA18BB28BA985BA858D919C91A0E0AB
:10099000B0E0E985FA8547855089618972894817F1
:1009A00059076A077B0744F01786108A118A128A52
:1009B000968181E08927868300E020E040E060E0C6
:1009C00089859A850E944703E985FA85268167858E
:1009D0007089CF014396222341F02081318121503B
:1009E00031095901A61AB70AB501EF2C082D2C2D93
:1009F000412F9EC0E985FA8587819085A185B285C2
:100A00004385548565857685481759076A077B07AE
:100A1000F8F42481213021F4CC96A11DB11D07C02A
:100A2000223049F44E96A11DB11DE985FA858387D0
:100A30009487A587B687E985FA8587859089A189F6
:100A4000B2890196A11DB11D8787908BA18BB28BB6
:100A500000E020E040E060E089859A850E9447033D
:100A6000A985BA852D913C9111971F968D919D91E5
:100A70000D90BC91A02DE985FA8573965F01B901AF
:100A8000769567952B01612C712C20FD2AC0841569
:100A90009505A605B70544F0A985BA851F961D9250
:100AA0001D921D921C92529761507109E985FA8539
:100AB00087859089681B790BEF2C082D2C2D412FF1
:100AC000C5010E946B02A985BA856D917C91119731
:100AD000769567951F968D919C915097680F791F19
:100AE00024C0481659066A067B0634F4E985FA855F
:100AF0001786108A118A128AA985BA851F968D9148
:100B00009C915097680F791FEF2C082D2C2D412FA9
:100B1000C5010E946B02E985FA8560817181769535
:100B2000679587859089681B790B2C2D412FC5010E
:100B30000E946B028DC1E985FA8587819085A18528
:100B4000B2854385548565857685481759076A07B8
:100B50007B07F8F42481213021F40696A11DB11DF4
:100B600007C0223049F40396A11DB11DE985FA851D
:100B700083879487A587B687E985FA8587859089D5
:100B8000A189B2890196A11DB11D8787908BA18B88
:100B9000B28BE985FA8587859089A189B2898F3FD3
:100BA0009105A105B10544F01786108A118A128AB1
:100BB000968181E089278683E985FA85A681478425
:100BC0005088618872886F2D70E080E090E0912CF1
:100BD000A12CB12C2C2D30E040E050E029833A8349
:100BE0004B835C83212F30E040E050E02D833E8337
:100BF0004F835887AA2379F0C12CD12C7601CA944F
:100C0000A7019601241935094609570929013A0116
:100C10000E948C0B08C0A30192010E948C0BC12C76
:100C2000D12C7601CA94A70196010E94310B022FA4
:100C3000A3019201C501B4010E948C0BA70196018A
:100C40000E94310BB22EA301920169817A818B81BE
:100C50009C810E948C0BA70196010E94310B122FE0
:100C6000A30192016D817E818F8198850E948C0BFA
:100C7000A70196010E94310B622F2B2D412F8985F0
:100C80009A850E944703E4C0E985FA8587819085AB
:100C9000A185B285438554856585768548175907B2
:100CA0006A077B07F8F42481213021F40696A11D00
:100CB000B11D07C0223049F40396A11DB11DE9857D
:100CC000FA8583879487A587B687E985FA8587851E
:100CD0009089A189B2890196A11DB11D8787908B4A
:100CE000A18BB28BE985FA8587859089A189B28924
:100CF0008F3F9105A105B10524F01786108A118A4E
:100D0000128AC12CD12CE0E0F0E0E12CF12C20E0A3
:100D100030E0A985BA856D917C912617370708F0D8
:100D200097C0C7010E949C0BA985BA851F964C915C
:100D3000460F4095453550F4642F660F460F842FBB
:100D4000809550E060E070E0682B1FC04A3A80F464
:100D50004555642F660F640F462F4095842F90E011
:100D6000A0E0B0E04C015D01962AB501A4010DC0E0
:100D70004A5A642F660F460F842F809550E060E03A
:100D800070E0BA0155274427582BA985BA85559696
:100D90008D919C9156972817390708F051C04B0147
:100DA000AA24BB24452E562E672E7724042D142FFB
:100DB0005A963C90332091F0032D10E0089DD0010D
:100DC000099DB00D189DB00D11248B2E439CC001C0
:100DD0001124092F439DA0011124152FA985BA853F
:100DE00090964C9190975D965C915D975B968D91F6
:100DF0009C915C97451303C08E0F9F1F07C08C0DFD
:100E00009D1D5C01A40EB11CD5011C92A985BA855B
:100E10005D964C915C01A40EB11CD5018C92A98504
:100E2000BA855E964C914C01840E911CD4010C93B2
:100E3000A985BA855F964C91840F911DDC011C93A6
:100E40002F5F3F4FF394339644E0C40ED11C61CF23
:100E50002A960FB6F894DEBF0FBECDBFDF91CF91BB
:100E60001F910F91FF90EF90DF90CF90BF90AF90C8
:100E70009F908F907F906F905F904F903F900895DC
:100E8000CF93C9E29091AF018091B001981781F1A1
:100E90008CEB91E00E94060380931B01811103C03B
:100EA00010921A011EC08F3F91F490911801809109
:100EB0001901E0911601E150CE9FF0011124E85391
:100EC000FE4F209117012283938384830AC0E0910F
:100ED0001A0191E09E0F90931A01F0E0EA5EFE4F36
:100EE000808380911A01843068F210921A01CACF6F
:100EF000CF910895CF93DF93EC0188859985009772
:100F000011F00E944B0C8E8187FD05C060E0DF91DF
:100F1000CF910C944501DF91CF9108950E94E30C8D
:100F20001F920F920FB60F9211242F933F938F931E
:100F30009F93AF93BF938091B8019091B901A09115
:100F4000BA01B091BB013091A50123E0230F2D37E9
:100F500020F40196A11DB11D05C026E8230F0296BD
:100F6000A11DB11D2093A5018093B8019093B901F3
:100F7000A093BA01B093BB018091A6019091A70103
:100F8000A091A801B091A9010196A11DB11D809366
:100F9000A6019093A701A093A801B093A901BF91C6
:100FA000AF919F918F913F912F910F900FBE0F9016
:100FB0001F9018951F920F920FB60F9211242F9326
:100FC0003F934F935F936F937F938F939F93AF93D1
:100FD000BF93EF93FF938091B900887F803609F427
:100FE0009CC068F5883209F45BC090F4803109F444
:100FF00054C038F4882309F4F6C0883009F44DC091
:10100000F6C0883109F44CC0803209F45DC0EFC0ED
:10101000803409F468C048F4803309F455C088333B
:1010200009F0E5C080938101D8C0803509F44FC034
:10103000883509F45DC0883409F0D9C0D6C0883934
:1010400009F4C7C0A8F4883709F467C038F48836B3
:1010500009F463C0803709F460C0C9C0883809F456
:10106000B8C0803909F45FC0803809F0C0C05BC0E7
:10107000803B09F486C038F4803A09F466C0883AA7
:1010800009F47FC0B4C0803C09F4A7C0883C09F4CF
:10109000A4C0883B09F48AC0AAC08091A40110C0F2
:1010A0009091A3018091A201981770F5E091A3019E
:1010B00081E08E0F8093A301F0E0EE57FE4F808118
:1010C0008093BB0085EC86C0809381018EC0E09147
:1010D000A30181E08E0F8093A3018091BB00F0E01B
:1010E000EE57FE4F80839091A3018091A2016EC0C4
:1010F000E091A30181E08E0F8093A3018091BB005A
:10110000F0E0EE57FE4F80838091AB0181116DC0FE
:1011100081E08093AA0184EA61C083E08093AC01FE
:1011200010928001CFCF80918001803208F051C0B1
:10113000E091800181E08E0F809380018091BB005F
:10114000F0E0E05AFE4F8083BDCF85EC8093BC0079
:101150001092AC0180918001803230F4E0918001E6
:10116000F0E0E05AFE4F10826091800170E0E09163
:10117000B101F091B20180E691E0099510928001F1
:1011800036C084E08093AC0110925F0110925E0142
:10119000E091B301F091B401099580915E01811154
:1011A00005C081E080935E0110923E01E0915F01F5
:1011B00081E08E0F80935F01F0E0E25CFE4F808162
:1011C0008093BB0090915F0180915E01981708F4B5
:1011D00079CF85E88093BC000AC085EC8093BC0081
:1011E0001092AC0104C0109281010E94C402FF91D0
:1011F000EF91BF91AF919F918F917F916F915F918F
:101200004F913F912F910F900FBE0F901F90189507
:101210001092BF011092BE0188EE93E0A0E0B0E012
:101220008093C0019093C101A093C201B093C30108
:101230008AE091E09093BD018093BC0181EF91E041
:10124000E8ECF1E058E021E04FEF32E0DC01979765
:101250005C9311962C9311962C9311962C931196C6
:101260001C921782108611861286138614861586A4
:1012700016861786108A118A128A1D962C9311964B
:101280001C92168A158A108E178A15964C93119601
:101290001C92148E138E13962C9311961C921196F9
:1012A0003C9311962C9311A212A213A214A2189689
:1012B0001C92B996899664E0E835F60739F60895E8
:1012C000CF93DF93CDB7DEB765970FB6F894DEBF47
:1012D0000FBECDBF789484B5826084BD84B5816033
:1012E00084BD85B5826085BD85B5816085BD8091F1
:1012F0006E00816080936E00109281008091810069
:101300008260809381008091810081608093810060
:10131000809180008160809380008091B100846022
:101320008093B1008091B00081608093B000809183
:101330007A00846080937A0080917A008260809342
:101340007A0080917A00816080937A0080917A009F
:10135000806880937A001092C10084E88093BA007C
:1013600083EC90E09093B4018093B3018FEC90E014
:101370009093B2018093B1011092B0011092AF012D
:101380001092AE011092AD011092AC0111E01093D9
:10139000AB011092AA0161E082E10E94F90061E0D4
:1013A00083E10E94F9008091B9008E7F8093B9009B
:1013B0008091B9008D7F8093B90088E48093B80054
:1013C00085E48093BC0080E497E09093B60180931D
:1013D000B501E091B701E03108F08AC081E08E0FDD
:1013E0008093B701EE2EF12C29E2E29FF001112447
:1013F000E853FE4F10A731E1C32ED12CD182C08219
:101400001A8218861F86188A198A1A8A83E08E879C
:101410001B871C8682E08D87198384E490E09E837D
:101420008D830E94B60B9A878987009741F024E448
:10143000DC011D922A95E9F7DC82CB8204C01E8272
:101440001D821C821B8286E08F838A81882341F063
:1014500061E086E00E94450160E086E00E94F900BC
:10146000EAECF0E0E491F0E0EE0FFF1FE654FF4FEE
:10147000859194919C8B8B8BECEAF0E0E491ED8B61
:1014800089E28E9D80018F9D100D1124D801A552F7
:10149000BE4F85E1FE01319601900D928A95E1F7EC
:1014A000CE0101960E947A07F801E552FE4F6F01C6
:1014B00008531E4FD80159968C9187FD08C061E0F2
:1014C0000E94450160E0F801818D0E94F90089E2E7
:1014D0008E9DF0018F9DF00D1124E853FE4F81E0A9
:1014E000848B838D948D892B19F0C6010E94A601EF
:1014F0002091E201222339F10091E3011091E401EE
:10150000215051F030E040E050E06FEF7FEF80E09D
:1015100090E00E94310B02C020E030E0F8014091E1
:10152000DF015091E001CF01801B910B84179507DB
:1015300040F44081429FC001439F900D112491933C
:10154000EECF1092E20190E0A92E90E0B92E88EC47
:10155000E82E81E0F82EC12CD12CA60148535E4F15
:10156000DA0198968C91882309F447C02FB7F89434
:101570008091B8019091B901A091BA01B091BB01DD
:101580002FBFF70187839087A187B287DA01129670
:10159000EC918E2F90E0FC013197E830F10520F5B9
:1015A000E45CFF4F0C94B00B00E020E011C000E0C1
:1015B00020E040E20EC000E020E040E80AC000E089
:1015C00020E04FEF0DC000E02FEF09C000E02FEF4B
:1015D00040E06FEF06C00FEF01C000E020E040E008
:1015E00060E0C7010E948003C7014396F701238D85
:1015F000348D232B11F00E94A601F9E2CF0ED11CED
:1016000029E2E20EF11C80E9C81682E0D80609F052
:10161000A4CF0E9481016B017C010E948101DC0149
:10162000CB018C199D09AE09BF09883E9340A105E5
:10163000B10598F3A114B10409F489CF0E94000008
:1016400086CFCF93DF93C8E5D4E0A997CE01439628
:101650000E947A0781E0C83CD807B9F7DF91CF91A3
:101660000895052E97FB1EF400940E94480B57FD29
:1016700007D00E945B0B07FC03D04EF40C94480B80
:1016800050954095309521953F4F4F4F5F4F0895AE
:1016900090958095709561957F4F8F4F9F4F0895DE
:1016A0000E947D0BA59F900DB49F900DA49F800D6F
:1016B000911D11240895A1E21A2EAA1BBB1BFD0146
:1016C0000DC0AA1FBB1FEE1FFF1FA217B307E40721
:1016D000F50720F0A21BB30BE40BF50B661F771F79
:1016E000881F991F1A9469F7609570958095909559
:1016F0009B01AC01BD01CF010895A29FB001B39F32
:10170000C001A39F700D811D1124911DB29F700D0A
:10171000811D1124911D0895DB018F939F930E94D9
:10172000500BBF91AF91A29F800D911DA39F900D73
:10173000B29F900D11240895AA1BBB1B51E107C055
:10174000AA1FBB1FA617B70710F0A61BB70B881F51
:10175000991F5A95A9F780959095BC01CD010895E0
:10176000EE0FFF1F0590F491E02D0994CF93DF93C6
:101770008230910510F482E090E0E0915A04F091FB
:101780005B0420E030E0C0E0D0E0309711F1408110
:10179000518148175907C0F04817590761F48281F1
:1017A0009381209719F09B838A832BC090935B04CD
:1017B00080935A0426C02115310519F042175307AA
:1017C00018F49A01BE01DF01EF010280F381E02DE0
:1017D000DCCF2115310509F1281B390B24303105E7
:1017E00090F412968D919C9113976115710521F0DB
:1017F000FB019383828304C090935B0480935A041B
:10180000FD01329644C0FD01E20FF31F81939193D5
:10181000225031092D933C933AC0209158043091C5
:101820005904232B41F4209102013091030130939C
:101830005904209358042091000130910101211591
:10184000310541F42DB73EB7409104015091050197
:10185000241B350BE0915804F0915904E217F3076B
:10186000A0F42E1B3F0B2817390778F0AC014E5F10
:101870005F4F2417350748F04E0F5F1F50935904F0
:10188000409358048193919302C0E0E0F0E0CF01CF
:10189000DF91CF9108950F931F93CF93DF9300971C
:1018A00009F48CC0FC0132971382128200915A0411
:1018B00010915B040115110581F420813181820FA3
:1018C000931F20915804309159042817390779F54E
:1018D000F0935904E093580471C0D80140E050E0FF
:1018E000AE17BF0750F412962D913C911397AD019E
:1018F0002115310509F1D901F3CF9D01DA013383B7
:10190000228360817181860F971F8217930769F484
:10191000EC0128813981260F371F2E5F3F4F31831D
:1019200020838A819B8193838283452B29F4F093C2
:101930005B04E0935A0442C01396FC93EE93129713
:10194000ED01499159919E01240F351FE217F307CC
:1019500071F480819181840F951F029611969C935A
:101960008E938281938113969C938E931297E0E0DD
:10197000F0E0D80112968D919C911397009719F081
:10198000F8018C01F6CF8D919C9198012E5F3F4F0D
:10199000820F931F2091580430915904281739075A
:1019A00069F4309729F410925B0410925A0402C033
:1019B000138212821093590400935804DF91CF913F
:1019C0001F910F91089581E090E0F8940C94E80C39
:1019D00010E0CDE6D0E004C0FE010E94B00B2196DD
:0A19E000CE36D107C9F7F894FFCF07
:1019EA0000005C04800000000000360322031A0392
:0619FA000603F702F602ED
:00000001FF
