:100000000C946E000C9496000C9496000C94960040
:100010000C9496000C9496000C9496000C94960008
:100020000C9496000C9496000C9496000C949600F8
:100030000C9496000C9496000C9496000C949600E8
:100040000C94B5070C9496000C9496000C949600B2
:100050000C9496000C9496000C9496000C949600C8
:100060000C94FF070C949600CA03D403D4034104F4
:100070009704FC049D054606FF0A020B060B0A0BBB
:100080000E0B110B160B180B0000000024002700AC
:100090002A0000000008000201000003040700001D
:1000A000000000000000010204081020408001024E
:1000B00004081020010204081020000000002500A0
:1000C00028002B00040404040404040402020202B5
:1000D00002020303030303032D094C0B11241FBE6B
:1000E000CFEFD8E0DEBFCDBF11E0A0E0B1E0E0E4AB
:1000F000FAE102C005900D92A631B107D9F724E0CC
:10010000A6E1B1E001C01D92AC38B207E1F710E002
:10011000CDE6D0E004C02197FE010E94DB0BCC3677
:10012000D107C9F70E948B090C94130D0C940000A1
:10013000CF92DF92EF92FF920F931F93CF93DF93B3
:100140006C017A018B01C0E0D0E0CE15DF0589F0AB
:10015000D8016D918D01D601ED91FC910190F08156
:10016000E02DC6010995892B11F47E0102C021966C
:10017000ECCFC701DF91CF911F910F91FF90EF90CE
:10018000DF90CF900895E0913C01F0913D013097D0
:1001900029F01092AE011092AD0109940895CF9309
:1001A000DF93AC01E091B501F091B6013097F1F029
:1001B0009091B0018091AF019817C0F090E0292F85
:1001C00030E02617370754F4D901A45EBE4FEA0188
:1001D000C20FD31F88818C939F5FF1CF1092B00123
:1001E0006093AF01CB01DF91CF910994DF91CF9163
:1001F000089590E0FC01EE56FF4F3491FC01EA5562
:10020000FF4F2491FC01EC53FF4FE491EE2309F4DE
:100210003BC0332339F1333091F038F43130A9F059
:10022000323001F584B58F7D12C0373091F038300F
:10023000A1F03430B9F4809180008F7D03C08091AB
:1002400080008F77809380000DC084B58F7784BD48
:1002500009C08091B0008F7703C08091B0008F7D7E
:100260008093B000F0E0EE0FFF1FE654FF4FA59122
:10027000B4918FB7F894EC91611103C020952E23AF
:1002800001C02E2B2C938FBF0895CF93DF9390E066
:10029000FC01EA55FF4F2491FC01EC53FF4F849180
:1002A000882361F190E0880F991FFC01E857FF4F08
:1002B000C591D491FC01E654FF4FA591B491611111
:1002C00009C09FB7F8948881209582238883EC9198
:1002D0002E230BC0623061F49FB7F8943881822FCF
:1002E000809583238883EC912E2B2C939FBF06C08F
:1002F0008FB7F894E8812E2B28838FBFDF91CF91A1
:1003000008953FB7F8948091A6019091A701A0911C
:10031000A801B091A90126B5A89B05C02F3F19F0EF
:100320000196A11DB11D3FBFBA2FA92F982F882775
:10033000820F911DA11DB11DBC01CD0142E0660FD0
:10034000771F881F991F4A95D1F70895CF92DF92A2
:10035000EF92FF920F931F93CF93DF93CDB7DEB74A
:1003600029970FB6F894DEBF0FBECDBF8C010E9457
:100370008101D8011E96CD90DD90ED90FC905197B3
:10038000DC01CB018C199D09AE09BF098C3291406B
:10039000A105B10560F3F894D80114968D919C9154
:1003A00015979A8389831896ED91FC9119977F018F
:1003B000BFEFEB1AFB0A80818B83F80190810288E2
:1003C000F389E02DD80154968C91992309F430C01B
:1003D0009081982B9C839081809589238D838D813A
:1003E0008E8388E08F835C816D814B813F812E817C
:1003F00089819A81D701508347FD252F3A95208323
:10040000262F39F0441F00C000006083000000C0A8
:10041000F2CF38E04D9160830000019761F7D80179
:100420005396FC93EE9352974B833F832E833AC0AF
:100430009081982B9C839081809589238D838D81D9
:10044000888788E089875C816D814B813985288523
:1004500089819A81D701508347FD252F00C000C0B4
:10046000208300C000C000C000C000C06083000046
:10047000262F3A9541F0441F000000C000C000C084
:1004800000C000C0E8CF38E04D9100C0608300C0DC
:10049000019709F7D8015396FC93EE9352974B833B
:1004A000398728879A83898378940E948101F8018B
:1004B00066877787808B918B29960FB6F894DEBF7D
:1004C0000FBECDBFDF91CF911F910F91FF90EF90A5
:1004D000DF90CF900895EF92FF920F931F93DC016E
:1004E00012968D919C9113976817790708F047C071
:1004F00017968C911797882381F0489FA0011124AB
:10050000452F289F90011124232F089F800111243B
:10051000012FE89E70011124EF2C1D968C911D97E0
:100520001A969C911A971896ED91FC911997891338
:1005300008C0CB01880F991F680F791F6E0F7F1FAE
:100540000AC0660F771F660F771F6E0F7F1FFB01B4
:10055000E80FF11DE0821A968C911A97FB01E80FC3
:10056000F11D40831B968C911B97FB01E80FF11D39
:1005700020831C968C91FB01E80FF11D00831F91D5
:100580000F91FF90EF90089585ED8093BC008091CE
:10059000BC0084FDFCCF1092AC01089540915E0137
:1005A000262F30E0240F311D21323105DCF420915B
:1005B000AC012430C9F4FC0180E090E0861758F4C7
:1005C00030915E012191DC01A25CBE4FA30FB11DF1
:1005D0002C930196F3CF80915E01680F60935E01CA
:1005E00080E0089581E0089582E008950895E09103
:1005F000B0018091AF01E81730F4F0E0E45EFE4F07
:10060000808190E008958FEF9FEF08959091B00161
:100610008091AF01981750F4E92FF0E0E45EFE4FAF
:10062000208130E09F5F9093B00102C02FEF3FEF39
:10063000C90108958091AF0190E02091B001821B23
:1006400091090895CF93DF9300D0CDB7DEB7CB01EA
:10065000642F49835A830E94CE024981842F5A8194
:10066000952F0F900F90DF91CF910895CF93DF9347
:100670001F92CDB7DEB7698361E0CE0101960E947B
:10068000CE0281E090E00F90DF91CF9108958F929C
:100690009F92AF92BF92CF92DF92EF92FF920F9311
:1006A0001F93CF93DF93FC0133A53323E1F0A02EFA
:1006B000B22EF42E162FEC01C12CD12C4C0186E168
:1006C000880E911C88819981C816D90660F4EA2C9D
:1006D0000B2D2F2D412FB601C4010E946B02FFEF9D
:1006E000CF1ADF0AEFCFDF91CF911F910F91FF90CB
:1006F000EF90DF90CF90BF90AF909F908F90089534
:100700003F924F925F926F927F928F929F92AF92A1
:10071000BF92CF92DF92EF92FF920F931F93CF93EE
:10072000DF93CDB7DEB72A970FB6F894DEBF0FBEC2
:10073000CDBFDC0113968C91139715969C9115975C
:100740008917B1F015968C931597CC24CA94DC2C9C
:1007500076015296CD92DD92ED92FC9255971996C4
:100760001C9219971E961D921D921D921C925197D4
:10077000482E512CF2013197E830F10508F06AC398
:10078000F02E822EC42E162FBA87A987EC5CFF4F5D
:100790000C94DB0BA985BA8552961D921D921D9271
:1007A0001C925597CD016FC2E985FA854285538524
:1007B000648575854684578460887188441655061B
:1007C00066067706C8F5218591E0922791872481F6
:1007D000213089F42A013B01FCE24F0EF1E05F1E5B
:1007E000611C711CA985BA851E964D925D926D9211
:1007F0007C9251970FC0223069F4455B5F4F6F4F79
:100800007F4FE985FA8546875787608B718B8330E8
:1008100021F012C0833081F4F0CF992369F0E9858B
:10082000FA8582899389A489B5890196A11DB11D94
:10083000828B938BA48BB58BE985FA85828993890A
:10084000A489B5890697A105B1055CF01186128AC5
:10085000138A148A158A868182838781838380859F
:100860008483E985FA858185882331F00F2D282D31
:100870004C2D612FCF0107C200E020E040E060E096
:1008800000C2E985FA8582859385A485B58546856C
:10089000578560897189481759076A077B07F8F4FB
:1008A0002481213021F44E96A11DB11D07C02230B4
:1008B00049F40F96A11DB11DE985FA8586879787B2
:1008C000A08BB18BE985FA8582899389A489B58942
:1008D0000196A11DB11D828B938BA48BB58BA9852D
:1008E000BA858D919C91A0E0B0E0E985FA854289B6
:1008F000538964897589481759076A077B0724F06B
:10090000128A138A148A158A00E020E040E060E031
:1009100089859A850E944703E985FA8562897389EA
:10092000EF2C082D2C2D412FCF01469603C1E985D0
:10093000FA8582859385A485B58546855785608926
:100940007189481759076A077B07F8F42481213019
:1009500021F44E96A11DB11D07C0223049F40F9617
:10096000A11DB11DE985FA8586879787A08BB18B7C
:10097000E985FA8582899389A489B5890196A11DA3
:10098000B11D828B938BA48BB58BA985BA858D9174
:100990009C91A0E0B0E0E985FA8542895389648999
:1009A0007589481759076A077B0744F0128A138A2A
:1009B000148A158A918581E08927818700E020E0EB
:1009C00040E060E089859A850E944703E985FA85C1
:1009D000218562897389CF014696222341F02081C7
:1009E0003181215031095901A61AB70AB501EF2CFE
:1009F000082D2C2D412F9EC0E985FA85828593858F
:100A0000A485B5854685578560897189481759073A
:100A10006A077B07F8F42481213021F4CC96A11DCC
:100A2000B11D07C0223049F44E96A11DB11DE985C4
:100A3000FA8586879787A08BB18BE985FA858289AD
:100A40009389A489B5890196A11DB11D828B938BD1
:100A5000A48BB58B00E020E040E060E089859A85BA
:100A60000E944703A985BA852D913C911197529612
:100A70008D919D910D90BC91A02DE985FA8576967A
:100A80005F01B901769567952B01612C712C20FDD2
:100A90002AC084159505A605B70544F0A985BA8531
:100AA00052961D921D921D921C925597615071098C
:100AB000E985FA8582899389681B790BEF2C082DCB
:100AC0002C2D412FC5010E946B02A985BA856D911D
:100AD0007C9111977695679552968D919C9153973D
:100AE000680F791F24C0481659066A067B0634F43D
:100AF000E985FA85128A138A148A158AA985BA8526
:100B000052968D919C915397680F791FEF2C082D69
:100B10002C2D412FC5010E946B02E985FA85608169
:100B200071817695679582899389681B790B2C2D45
:100B3000412FC5010E946B028DC1E985FA8582852E
:100B40009385A485B5854685578560897189481741
:100B500059076A077B07F8F42481213021F40696AF
:100B6000A11DB11D07C0223049F40396A11DB11D7E
:100B7000E985FA8586879787A08BB18BE985FA8509
:100B800082899389A489B5890196A11DB11D828BA3
:100B9000938BA48BB58BE985FA8582899389A48987
:100BA000B5898F3F9105A105B10544F0128A138ADA
:100BB000148A158A918581E089278187E985FA85DC
:100BC000A18542885388648875886F2D70E080E025
:100BD00090E0912CA12CB12C2C2D30E040E050E085
:100BE00029833A834B835C83212F30E040E050E03F
:100BF0002D833E834F835887AA2379F0C12CD12CB3
:100C00007601CA94A70196012419350946095709A6
:100C100029013A010E94B70B08C0A30192010E946A
:100C2000B70BC12CD12C7601CA94A70196010E9462
:100C30005C0B022FA3019201C501B4010E94B70B06
:100C4000A70196010E945C0BB22EA301920169815B
:100C50007A818B819C810E94B70BA70196010E942B
:100C60005C0B122FA30192016D817E818F8198858B
:100C70000E94B70BA70196010E945C0B622F2B2DDF
:100C8000412F89859A850E944703E4C0E985FA854A
:100C900082859385A485B585468557856089718948
:100CA000481759076A077B07F8F42481213021F49B
:100CB0000696A11DB11D07C0223049F40396A11D5F
:100CC000B11DE985FA8586879787A08BB18BE98569
:100CD000FA8582899389A489B5890196A11DB11DE0
:100CE000828B938BA48BB58BE985FA858289938956
:100CF000A489B5898F3F9105A105B10524F0128A19
:100D0000138A148A158AC12CD12CE0E0F0E0E12C82
:100D1000F12C20E030E0A985BA856D917C912617F1
:100D2000370708F097C0C7010E94C70BA985BA858D
:100D300052964C91460F4095453550F4642F660FFE
:100D4000460F842F809550E060E070E0682B1FC054
:100D50004A3A80F44555642F660F640F462F40953C
:100D6000842F90E0A0E0B0E04C015D01962AB5012F
:100D7000A4010DC04A5A642F660F460F842F809538
:100D800050E060E070E0BA0155274427582BA98550
:100D9000BA8558968D919C9159972817390708F074
:100DA00051C04B01AA24BB24452E562E672E772412
:100DB000042D142F5D963C90332091F0032D10E00C
:100DC000089DD001099DB00D189DB00D11248B2EEA
:100DD000439CC0011124092F439DA0011124152F0C
:100DE000A985BA8593964C91939790965C9190972C
:100DF0005E968D919C915F97451303C08E0F9F1F48
:100E000007C08C0D9D1D5C01A40EB11CD5011C9268
:100E1000A985BA8590964C915C01A40EB11CD501B0
:100E20008C92A985BA8591964C914C01840E911CA7
:100E3000D4010C93A985BA8592964C91840F911D8B
:100E4000DC011C932F5F3F4FF394339644E0C40EB4
:100E5000D11C61CF2A960FB6F894DEBF0FBECDBF6E
:100E6000DF91CF911F910F91FF90EF90DF90CF9086
:100E7000BF90AF909F908F907F906F905F904F90BA
:100E80003F900895CF93DF93CCE2D3E09091AF01F0
:100E90008091B001981709F44FC08CEB91E00E944B
:100EA000060380931B01811103C010921A013CC0FC
:100EB0008F3F81F58091160181503091170120916B
:100EC00018014091190190E0233051F0C89FF001C2
:100ED000C99FF00D1124E853FE4F368327834087C6
:100EE000C89FF001C99FF00D1124E853FE4F5381B4
:100EF000533019F03283238344832330A9F4C89FED
:100F0000F001C99FF00D1124E853FE4F3283D383C3
:100F100044830AC0E0911A0191E09E0F90931A0158
:100F2000F0E0EA5EFE4F808380911A01843008F47D
:100F3000ADCF10921A01AACFDF91CF910895CF9330
:100F4000DF93EC0188859985009711F00E94760C5B
:100F50008E8187FD05C060E0DF91CF910C94450143
:100F6000DF91CF9108950E940E0D1F920F920FB640
:100F70000F9211242F933F938F939F93AF93BF931F
:100F80008091B8019091B901A091BA01B091BB01D3
:100F90003091A50123E0230F2D3720F40196A11DE8
:100FA000B11D05C026E8230F0296A11DB11D209397
:100FB000A5018093B8019093B901A093BA01B093B1
:100FC000BB018091A6019091A701A091A801B091C9
:100FD000A9010196A11DB11D8093A6019093A701BF
:100FE000A093A801B093A901BF91AF919F918F9158
:100FF0003F912F910F900FBE0F901F9018951F9249
:101000000F920FB60F9211242F933F934F935F933C
:101010006F937F938F939F93AF93BF93EF93FF93C0
:101020008091B900887F803609F49CC068F58832C9
:1010300009F45BC090F4803109F454C038F488237B
:1010400009F4F6C0883009F44DC0F6C0883109F4BF
:101050004CC0803209F45DC0EFC0803409F468C030
:1010600048F4803309F455C0883309F0E5C0809313
:101070008101D8C0803509F44FC0883509F45DC0BE
:10108000883409F0D9C0D6C0883909F4C7C0A8F49B
:10109000883709F467C038F4883609F463C08037AC
:1010A00009F460C0C9C0883809F4B8C0803909F4AF
:1010B0005FC0803809F0C0C05BC0803B09F486C0C7
:1010C00038F4803A09F466C0883A09F47FC0B4C0A5
:1010D000803C09F4A7C0883C09F4A4C0883B09F40B
:1010E0008AC0AAC08091A40110C09091A3018091F0
:1010F000A201981770F5E091A30181E08E0F809313
:10110000A301F0E0EE57FE4F80818093BB0085EC99
:1011100086C0809381018EC0E091A30181E08E0F93
:101120008093A3018091BB00F0E0EE57FE4F8083D7
:101130009091A3018091A2016EC0E091A30181E092
:101140008E0F8093A3018091BB00F0E0EE57FE4F1D
:1011500080838091AB0181116DC081E08093AA01F1
:1011600084EA61C083E08093AC0110928001CFCF0C
:1011700080918001803208F051C0E091800181E0CF
:101180008E0F809380018091BB00F0E0E05AFE4F0B
:101190008083BDCF85EC8093BC001092AC01809120
:1011A0008001803230F4E0918001F0E0E05AFE4F9F
:1011B00010826091800170E0E091B101F091B20184
:1011C00080E691E009951092800136C084E080931A
:1011D000AC0110925F0110925E01E091B301F091B9
:1011E000B401099580915E01811105C081E0809371
:1011F0005E0110923E01E0915F0181E08E0F8093CD
:101200005F01F0E0E25CFE4F80818093BB00909133
:101210005F0180915E01981708F479CF85E880938B
:10122000BC000AC085EC8093BC001092AC0104C0E5
:10123000109281010E94C402FF91EF91BF91AF9182
:101240009F918F917F916F915F914F913F912F91DE
:101250000F900FBE0F901F9018951092BF01109223
:10126000BE0188EE93E0A0E0B0E08093C0019093CF
:10127000C101A093C201B093C3018AE091E09093B1
:10128000BD018093BC0184EF91E0E8ECF1E038E02F
:1012900021E05FEF42E0DC019A973C9311962C939A
:1012A00011962C9311962C9311963C9311962C9396
:1012B00011962C9311961C9212861386148615860D
:1012C00016861786108A118A128A138A148A158A3A
:1012D0001D962C9311961C92118E108E138E128EC9
:1012E00015965C9311961C92178E168E13962C935E
:1012F00011961C9211964C9311962C9314A215A240
:1013000016A217A218961C92BC968C9664E0E83838
:10131000F60709F60895CF93DF93CDB7DEB765974B
:101320000FB6F894DEBF0FBECDBF789484B582604F
:1013300084BD84B5816084BD85B5826085BD85B579
:10134000816085BD80916E00816080936E001092F7
:101350008100809181008260809381008091810072
:101360008160809381008091800081608093800003
:101370008091B10084608093B1008091B000816061
:101380008093B00080917A00846080937A0080918D
:101390007A00826080937A0080917A0081608093E5
:1013A0007A0080917A00806880937A001092C10060
:1013B00084E88093BA0083EC90E09093B40180932A
:1013C000B3018FEC90E09093B2018093B101109241
:1013D000B0011092AF011092AE011092AD011092C7
:1013E000AC0111E01093AB011092AA0161E082E11F
:1013F0000E94F90061E083E10E94F9008091B90048
:101400008E7F8093B9008091B9008D7F8093B90061
:1014100088E48093B80085E48093BC0082E497E080
:101420009093B6018093B501E091B701E03108F0E7
:101430008AC081E08E0F8093B701EE2EF12C2CE252
:10144000E29FF0011124E853FE4F13A731E1C32EB0
:10145000D12CD182C0821A8218861F86188A198AD6
:101460001A8A83E08E871B871C8682E08D8719830A
:1014700084E490E09E838D830E94E10B9A878987A4
:10148000009741F024E4DC011D922A95E9F7DC8203
:10149000CB8204C01E821D821C821B8286E08F8349
:1014A0008A81882341F061E086E00E94450160E086
:1014B00086E00E94F900EAECF0E0E491F0E0EE0F43
:1014C000FF1FE654FF4F859194919C8B8B8BECEA28
:1014D000F0E0E491ED8B8CE28E9D80018F9D100DEC
:1014E0001124D801A252BE4F85E1FE013196019030
:1014F0000D928A95E1F7CE0101960E949F07F801AF
:10150000E252FE4F6F0108531E4FD8015C968C913A
:1015100087FD08C061E00E94450160E0F801848D0C
:101520000E94F9008CE28E9DF0018F9DF00D112438
:10153000E853FE4F81E0878B868D978D892B19F0BC
:10154000C6010E94A6012091E501222339F10091F4
:10155000E6011091E701215051F030E040E050E009
:101560006FEF7FEF80E090E00E945C0B02C020E014
:1015700030E0F8014091E2015091E301CF01801B7E
:10158000910B8417950740F44081429FC001439F0F
:10159000900D11249193EECF1092E50190E0A92EC9
:1015A00090E0B92E88ECE82E81E0F82EC12CD12CE9
:1015B000A60148535E4FDA019B968C91882309F46B
:1015C00047C02FB7F8948091B8019091B901A091CC
:1015D000BA01B091BB012FBFF70182879387A4871F
:1015E000B587DA011296EC918E2F90E0FC013197CD
:1015F000E830F10520F5E45CFF4F0C94DB0B00E0D4
:1016000020E011C000E020E040E20EC000E020E059
:1016100040E80AC000E020E04FEF0DC000E02FEFEF
:1016200009C000E02FEF40E06FEF06C00FEF01C0F0
:1016300000E020E040E060E0C7010E948003C701B5
:101640004696F701268D378D232B11F00E94A601B7
:10165000FCE2CF0ED11C2CE2E20EF11C80ECC8168D
:1016600082E0D80609F0A4CF0E9481016B017C01C1
:101670000E948101DC01CB018C199D09AE09BF09D3
:10168000883E9340A105B10598F3A114B10409F473
:1016900089CF0E94000086CFCF93DF93C8E8D4E0C3
:1016A000AC97CE0146960E949F0781E0C83CD807C0
:1016B000B9F7DF91CF910895052E97FB1EF40094A2
:1016C0000E94730B57FD07D00E94860B07FC03D0C6
:1016D0004EF40C94730B50954095309521953F4FE7
:1016E0004F4F5F4F089590958095709561957F4F0E
:1016F0008F4F9F4F08950E94A80BA59F900DB49FF8
:10170000900DA49F800D911D11240895A1E21A2E21
:10171000AA1BBB1BFD010DC0AA1FBB1FEE1FFF1F95
:10172000A217B307E407F50720F0A21BB30BE40BE5
:10173000F50B661F771F881F991F1A9469F760952C
:101740007095809590959B01AC01BD01CF010895E6
:10175000A29FB001B39FC001A39F700D811D1124F2
:10176000911DB29F700D811D1124911D0895DB0103
:101770008F939F930E947B0BBF91AF91A29F800D8F
:10178000911DA39F900DB29F900D11240895AA1B47
:10179000BB1B51E107C0AA1FBB1FA617B70710F05C
:1017A000A61BB70B881F991F5A95A9F7809590958E
:1017B000BC01CD010895EE0FFF1F0590F491E02DBF
:1017C0000994CF93DF938230910510F482E090E08A
:1017D000E0918A04F0918B0420E030E0C0E0D0E09A
:1017E000309711F14081518148175907C0F04817CF
:1017F000590761F482819381209719F09B838A8332
:101800002BC090938B0480938A0426C02115310548
:1018100019F04217530718F49A01BE01DF01EF01D6
:101820000280F381E02DDCCF2115310509F1281B61
:10183000390B2430310590F412968D919C911397B9
:101840006115710521F0FB019383828304C090939D
:101850008B0480938A04FD01329644C0FD01E20F9F
:10186000F31F81939193225031092D933C933AC0F9
:101870002091880430918904232B41F420910201A6
:101880003091030130938904209388042091000152
:10189000309101012115310541F42DB73EB740913A
:1018A000040150910501241B350BE0918804F0914F
:1018B0008904E217F307A0F42E1B3F0B2817390702
:1018C00078F0AC014E5F5F4F2417350748F04E0F9C
:1018D0005F1F50938904409388048193919302C0C1
:1018E000E0E0F0E0CF01DF91CF9108950F931F93D7
:1018F000CF93DF93009709F48CC0FC0132971382D9
:10190000128200918A0410918B040115110581F453
:1019100020813181820F931F2091880430918904A6
:101920002817390779F5F0938904E093880471C08A
:10193000D80140E050E0AE17BF0750F412962D9149
:101940003C911397AD012115310509F1D901F3CF70
:101950009D01DA013383228360817181860F971F95
:101960008217930769F4EC0128813981260F371F0C
:101970002E5F3F4F318320838A819B8193838283B3
:10198000452B29F4F0938B04E0938A0442C013960C
:10199000FC93EE931297ED01499159919E01240F0A
:1019A000351FE217F30771F480819181840F951F31
:1019B000029611969C938E938281938113969C93A9
:1019C0008E931297E0E0F0E0D80112968D919C91F1
:1019D0001397009719F0F8018C01F6CF8D919C9127
:1019E00098012E5F3F4F820F931F20918804309102
:1019F00089042817390769F4309729F410928B0469
:101A000010928A0402C013821282109389040093F8
:101A10008804DF91CF911F910F91089581E090E0AC
:101A2000F8940C94130D10E0CDE6D0E004C0FE0154
:101A30000E94DB0B2196CE36D107C9F7F894FFCF71
:101A400000008C04800000000000360322031A030B
:061A50000603F702F60296
:107E0000112484B714BE81FFF0D085E080938100F7
:107E100082E08093C00088E18093C10086E0809377
:107E2000C20080E18093C4008EE0C9D0259A86E02C
:107E300020E33CEF91E0309385002093840096BBD3
:107E4000B09BFECF1D9AA8958150A9F7CC24DD24C4
:107E500088248394B5E0AB2EA1E19A2EF3E0BF2EE7
:107E6000A2D0813461F49FD0082FAFD0023811F036
:107E7000013811F484E001C083E08DD089C08234E0
:107E800011F484E103C0853419F485E0A6D080C0E4
:107E9000853579F488D0E82EFF2485D0082F10E0AE
:107EA000102F00270E291F29000F111F8ED06801E7
:107EB0006FC0863521F484E090D080E0DECF843638
:107EC00009F040C070D06FD0082F6DD080E0C81688
:107ED00080E7D80618F4F601B7BEE895C0E0D1E017
:107EE00062D089930C17E1F7F0E0CF16F0E7DF06D8
:107EF00018F0F601B7BEE89568D007B600FCFDCFD4
:107F0000A601A0E0B1E02C9130E011968C91119780
:107F100090E0982F8827822B932B1296FA010C0160
:107F200087BEE89511244E5F5F4FF1E0A038BF0790
:107F300051F7F601A7BEE89507B600FCFDCF97BE46
:107F4000E89526C08437B1F42ED02DD0F82E2BD052
:107F50003CD0F601EF2C8F010F5F1F4F84911BD097
:107F6000EA94F801C1F70894C11CD11CFA94CF0C13
:107F7000D11C0EC0853739F428D08EE10CD085E9AC
:107F80000AD08FE07ACF813511F488E018D01DD067
:107F900080E101D065CF982F8091C00085FFFCCF94
:107FA0009093C60008958091C00087FFFCCF809118
:107FB000C00084FD01C0A8958091C6000895E0E648
:107FC000F0E098E1908380830895EDDF803219F02E
:107FD00088E0F5DFFFCF84E1DECF1F93182FE3DFCA
:107FE0001150E9F7F2DF1F91089580E0E8DFEE27F6
:047FF000FF270994CA
:027FFE00040479
:0400000300007E007B
:00000001FF